{
  "contractName": "AWST_NSM",
  "abi": [
    {
      "inputs": [
        {
          "internalType": "string",
          "name": "_name",
          "type": "string"
        },
        {
          "internalType": "string",
          "name": "_symbol",
          "type": "string"
        },
        {
          "internalType": "string",
          "name": "_baseURI",
          "type": "string"
        },
        {
          "internalType": "bool",
          "name": "_isPaused",
          "type": "bool"
        }
      ],
      "stateMutability": "nonpayable",
      "type": "constructor"
    },
    {
      "anonymous": false,
      "inputs": [
        {
          "indexed": true,
          "internalType": "address",
          "name": "account",
          "type": "address"
        },
        {
          "indexed": true,
          "internalType": "address",
          "name": "operator",
          "type": "address"
        },
        {
          "indexed": false,
          "internalType": "bool",
          "name": "approved",
          "type": "bool"
        }
      ],
      "name": "ApprovalForAll",
      "type": "event"
    },
    {
      "anonymous": false,
      "inputs": [
        {
          "indexed": true,
          "internalType": "address",
          "name": "previousOwner",
          "type": "address"
        },
        {
          "indexed": true,
          "internalType": "address",
          "name": "newOwner",
          "type": "address"
        }
      ],
      "name": "OwnershipTransferred",
      "type": "event"
    },
    {
      "anonymous": false,
      "inputs": [
        {
          "indexed": false,
          "internalType": "address",
          "name": "account",
          "type": "address"
        }
      ],
      "name": "Paused",
      "type": "event"
    },
    {
      "anonymous": false,
      "inputs": [
        {
          "indexed": true,
          "internalType": "address",
          "name": "operator",
          "type": "address"
        },
        {
          "indexed": true,
          "internalType": "address",
          "name": "from",
          "type": "address"
        },
        {
          "indexed": true,
          "internalType": "address",
          "name": "to",
          "type": "address"
        },
        {
          "indexed": false,
          "internalType": "uint256[]",
          "name": "ids",
          "type": "uint256[]"
        },
        {
          "indexed": false,
          "internalType": "uint256[]",
          "name": "values",
          "type": "uint256[]"
        }
      ],
      "name": "TransferBatch",
      "type": "event"
    },
    {
      "anonymous": false,
      "inputs": [
        {
          "indexed": true,
          "internalType": "address",
          "name": "operator",
          "type": "address"
        },
        {
          "indexed": true,
          "internalType": "address",
          "name": "from",
          "type": "address"
        },
        {
          "indexed": true,
          "internalType": "address",
          "name": "to",
          "type": "address"
        },
        {
          "indexed": false,
          "internalType": "uint256",
          "name": "id",
          "type": "uint256"
        },
        {
          "indexed": false,
          "internalType": "uint256",
          "name": "value",
          "type": "uint256"
        }
      ],
      "name": "TransferSingle",
      "type": "event"
    },
    {
      "anonymous": false,
      "inputs": [
        {
          "indexed": false,
          "internalType": "string",
          "name": "value",
          "type": "string"
        },
        {
          "indexed": true,
          "internalType": "uint256",
          "name": "id",
          "type": "uint256"
        }
      ],
      "name": "URI",
      "type": "event"
    },
    {
      "anonymous": false,
      "inputs": [
        {
          "indexed": false,
          "internalType": "address",
          "name": "account",
          "type": "address"
        }
      ],
      "name": "Unpaused",
      "type": "event"
    },
    {
      "inputs": [
        {
          "internalType": "address",
          "name": "account",
          "type": "address"
        },
        {
          "internalType": "uint256",
          "name": "id",
          "type": "uint256"
        }
      ],
      "name": "balanceOf",
      "outputs": [
        {
          "internalType": "uint256",
          "name": "",
          "type": "uint256"
        }
      ],
      "stateMutability": "view",
      "type": "function",
      "constant": true
    },
    {
      "inputs": [
        {
          "internalType": "address[]",
          "name": "accounts",
          "type": "address[]"
        },
        {
          "internalType": "uint256[]",
          "name": "ids",
          "type": "uint256[]"
        }
      ],
      "name": "balanceOfBatch",
      "outputs": [
        {
          "internalType": "uint256[]",
          "name": "",
          "type": "uint256[]"
        }
      ],
      "stateMutability": "view",
      "type": "function",
      "constant": true
    },
    {
      "inputs": [],
      "name": "baseURI",
      "outputs": [
        {
          "internalType": "string",
          "name": "",
          "type": "string"
        }
      ],
      "stateMutability": "view",
      "type": "function",
      "constant": true
    },
    {
      "inputs": [],
      "name": "currentTokenID",
      "outputs": [
        {
          "internalType": "uint256",
          "name": "",
          "type": "uint256"
        }
      ],
      "stateMutability": "view",
      "type": "function",
      "constant": true
    },
    {
      "inputs": [
        {
          "internalType": "address",
          "name": "",
          "type": "address"
        }
      ],
      "name": "isAllowedMinter",
      "outputs": [
        {
          "internalType": "bool",
          "name": "",
          "type": "bool"
        }
      ],
      "stateMutability": "view",
      "type": "function",
      "constant": true
    },
    {
      "inputs": [
        {
          "internalType": "address",
          "name": "account",
          "type": "address"
        },
        {
          "internalType": "address",
          "name": "operator",
          "type": "address"
        }
      ],
      "name": "isApprovedForAll",
      "outputs": [
        {
          "internalType": "bool",
          "name": "",
          "type": "bool"
        }
      ],
      "stateMutability": "view",
      "type": "function",
      "constant": true
    },
    {
      "inputs": [
        {
          "internalType": "uint256",
          "name": "",
          "type": "uint256"
        }
      ],
      "name": "isDisabled",
      "outputs": [
        {
          "internalType": "bool",
          "name": "",
          "type": "bool"
        }
      ],
      "stateMutability": "view",
      "type": "function",
      "constant": true
    },
    {
      "inputs": [],
      "name": "name",
      "outputs": [
        {
          "internalType": "string",
          "name": "",
          "type": "string"
        }
      ],
      "stateMutability": "view",
      "type": "function",
      "constant": true
    },
    {
      "inputs": [],
      "name": "owner",
      "outputs": [
        {
          "internalType": "address",
          "name": "",
          "type": "address"
        }
      ],
      "stateMutability": "view",
      "type": "function",
      "constant": true
    },
    {
      "inputs": [],
      "name": "paused",
      "outputs": [
        {
          "internalType": "bool",
          "name": "",
          "type": "bool"
        }
      ],
      "stateMutability": "view",
      "type": "function",
      "constant": true
    },
    {
      "inputs": [],
      "name": "renounceOwnership",
      "outputs": [],
      "stateMutability": "nonpayable",
      "type": "function"
    },
    {
      "inputs": [
        {
          "internalType": "address",
          "name": "operator",
          "type": "address"
        },
        {
          "internalType": "bool",
          "name": "approved",
          "type": "bool"
        }
      ],
      "name": "setApprovalForAll",
      "outputs": [],
      "stateMutability": "nonpayable",
      "type": "function"
    },
    {
      "inputs": [
        {
          "internalType": "bytes4",
          "name": "interfaceId",
          "type": "bytes4"
        }
      ],
      "name": "supportsInterface",
      "outputs": [
        {
          "internalType": "bool",
          "name": "",
          "type": "bool"
        }
      ],
      "stateMutability": "view",
      "type": "function",
      "constant": true
    },
    {
      "inputs": [],
      "name": "symbol",
      "outputs": [
        {
          "internalType": "string",
          "name": "",
          "type": "string"
        }
      ],
      "stateMutability": "view",
      "type": "function",
      "constant": true
    },
    {
      "inputs": [
        {
          "internalType": "address",
          "name": "newOwner",
          "type": "address"
        }
      ],
      "name": "transferOwnership",
      "outputs": [],
      "stateMutability": "nonpayable",
      "type": "function"
    },
    {
      "inputs": [
        {
          "internalType": "string",
          "name": "_baseURI",
          "type": "string"
        }
      ],
      "name": "setBaseURI",
      "outputs": [],
      "stateMutability": "nonpayable",
      "type": "function"
    },
    {
      "inputs": [
        {
          "internalType": "uint256",
          "name": "_tokenID",
          "type": "uint256"
        }
      ],
      "name": "disableSingle",
      "outputs": [],
      "stateMutability": "nonpayable",
      "type": "function"
    },
    {
      "inputs": [
        {
          "internalType": "uint256",
          "name": "_tokenID",
          "type": "uint256"
        }
      ],
      "name": "enableSingle",
      "outputs": [],
      "stateMutability": "nonpayable",
      "type": "function"
    },
    {
      "inputs": [],
      "name": "disableCollection",
      "outputs": [],
      "stateMutability": "nonpayable",
      "type": "function"
    },
    {
      "inputs": [],
      "name": "enableCollection",
      "outputs": [],
      "stateMutability": "nonpayable",
      "type": "function"
    },
    {
      "inputs": [
        {
          "internalType": "uint256",
          "name": "_id",
          "type": "uint256"
        }
      ],
      "name": "uri",
      "outputs": [
        {
          "internalType": "string",
          "name": "",
          "type": "string"
        }
      ],
      "stateMutability": "view",
      "type": "function",
      "constant": true
    },
    {
      "inputs": [
        {
          "internalType": "uint256",
          "name": "_tokenId",
          "type": "uint256"
        },
        {
          "internalType": "string",
          "name": "_uri",
          "type": "string"
        }
      ],
      "name": "setURI",
      "outputs": [],
      "stateMutability": "nonpayable",
      "type": "function"
    },
    {
      "inputs": [
        {
          "internalType": "uint256[]",
          "name": "ids",
          "type": "uint256[]"
        },
        {
          "internalType": "string[]",
          "name": "uris",
          "type": "string[]"
        }
      ],
      "name": "setBatchURI",
      "outputs": [],
      "stateMutability": "nonpayable",
      "type": "function"
    },
    {
      "inputs": [
        {
          "internalType": "address",
          "name": "account",
          "type": "address"
        },
        {
          "internalType": "uint256",
          "name": "amount",
          "type": "uint256"
        },
        {
          "internalType": "string",
          "name": "_uri",
          "type": "string"
        },
        {
          "internalType": "bytes",
          "name": "data",
          "type": "bytes"
        }
      ],
      "name": "mint",
      "outputs": [
        {
          "internalType": "uint256",
          "name": "",
          "type": "uint256"
        }
      ],
      "stateMutability": "nonpayable",
      "type": "function"
    },
    {
      "inputs": [
        {
          "internalType": "address",
          "name": "to",
          "type": "address"
        },
        {
          "internalType": "string[]",
          "name": "uris",
          "type": "string[]"
        },
        {
          "internalType": "uint256[]",
          "name": "values",
          "type": "uint256[]"
        },
        {
          "internalType": "bytes",
          "name": "data",
          "type": "bytes"
        }
      ],
      "name": "mintBatch",
      "outputs": [],
      "stateMutability": "nonpayable",
      "type": "function"
    },
    {
      "inputs": [
        {
          "internalType": "address",
          "name": "from",
          "type": "address"
        },
        {
          "internalType": "address",
          "name": "to",
          "type": "address"
        },
        {
          "internalType": "uint256",
          "name": "id",
          "type": "uint256"
        },
        {
          "internalType": "uint256",
          "name": "amount",
          "type": "uint256"
        },
        {
          "internalType": "bytes",
          "name": "data",
          "type": "bytes"
        }
      ],
      "name": "safeTransferFrom",
      "outputs": [],
      "stateMutability": "nonpayable",
      "type": "function"
    },
    {
      "inputs": [
        {
          "internalType": "address",
          "name": "from",
          "type": "address"
        },
        {
          "internalType": "address",
          "name": "to",
          "type": "address"
        },
        {
          "internalType": "uint256[]",
          "name": "ids",
          "type": "uint256[]"
        },
        {
          "internalType": "uint256[]",
          "name": "amounts",
          "type": "uint256[]"
        },
        {
          "internalType": "bytes",
          "name": "data",
          "type": "bytes"
        }
      ],
      "name": "safeBatchTransferFrom",
      "outputs": [],
      "stateMutability": "nonpayable",
      "type": "function"
    },
    {
      "inputs": [
        {
          "internalType": "address",
          "name": "owner",
          "type": "address"
        },
        {
          "internalType": "uint256",
          "name": "id",
          "type": "uint256"
        },
        {
          "internalType": "uint256",
          "name": "value",
          "type": "uint256"
        }
      ],
      "name": "burn",
      "outputs": [],
      "stateMutability": "nonpayable",
      "type": "function"
    },
    {
      "inputs": [
        {
          "internalType": "address",
          "name": "owner",
          "type": "address"
        },
        {
          "internalType": "uint256[]",
          "name": "ids",
          "type": "uint256[]"
        },
        {
          "internalType": "uint256[]",
          "name": "values",
          "type": "uint256[]"
        }
      ],
      "name": "burnBatch",
      "outputs": [],
      "stateMutability": "nonpayable",
      "type": "function"
    },
    {
      "inputs": [
        {
          "internalType": "address",
          "name": "account",
          "type": "address"
        }
      ],
      "name": "addMinter",
      "outputs": [],
      "stateMutability": "nonpayable",
      "type": "function"
    },
    {
      "inputs": [
        {
          "internalType": "address",
          "name": "account",
          "type": "address"
        }
      ],
      "name": "removeMinter",
      "outputs": [],
      "stateMutability": "nonpayable",
      "type": "function"
    }
  ],
  "bytecode": "0x60806040523480156200001157600080fd5b506040516200322f3803806200322f83398101604081905262000034916200040b565b81620000498164010000000062000127810204565b50620000706200006164010000000062000140810204565b64010000000062000144810204565b6003805460a060020a60ff0219169055835162000095906004906020870190620002ae565b508251620000ab906005906020860190620002ae565b508151620000c1906006906020850190620002ae565b50600160086000620000db64010000000062000140810204565b600160a060020a031681526020810191909152604001600020805460ff191691151591909117905580156200011d576200011d64010000000062000196810204565b505050506200053a565b80516200013c906002906020840190620002ae565b5050565b3390565b60038054600160a060020a03838116600160a060020a0319831681179093556040519116919082907f8be0079c531659141344cd1fd0a4f28419497f9722a3daafe3b4186f6b6457e090600090a35050565b620001a96401000000006200028d810204565b1562000215576040517f08c379a000000000000000000000000000000000000000000000000000000000815260206004820152601060248201527f5061757361626c653a2070617573656400000000000000000000000000000000604482015260640160405180910390fd5b6003805460a060020a60ff021916740100000000000000000000000000000000000000001790557f62e78cea01bee320cd4e420270b5ea74000d11b0c9f74754ebdbfc544b05a2586200027064010000000062000140810204565b604051600160a060020a03909116815260200160405180910390a1565b60035474010000000000000000000000000000000000000000900460ff1690565b828054620002bc90620004b5565b90600052602060002090601f016020900481019282620002e057600085556200032b565b82601f10620002fb57805160ff19168380011785556200032b565b828001600101855582156200032b579182015b828111156200032b5782518255916020019190600101906200030e565b50620003399291506200033d565b5090565b5b808211156200033957600081556001016200033e565b600082601f8301126200036657600080fd5b81516001604060020a03808211156200038357620003836200050b565b604051601f8301601f19908116603f01168101908282118183101715620003ae57620003ae6200050b565b81604052838152602092508683858801011115620003cb57600080fd5b600091505b83821015620003ef5785820183015181830184015290820190620003d0565b83821115620004015760008385830101525b9695505050505050565b600080600080608085870312156200042257600080fd5b84516001604060020a03808211156200043a57600080fd5b620004488883890162000354565b955060208701519150808211156200045f57600080fd5b6200046d8883890162000354565b945060408701519150808211156200048457600080fd5b50620004938782880162000354565b92505060608501518015158114620004aa57600080fd5b939692955090935050565b600281046001821680620004ca57607f821691505b6020821081141562000505577f4e487b7100000000000000000000000000000000000000000000000000000000600052602260045260246000fd5b50919050565b7f4e487b7100000000000000000000000000000000000000000000000000000000600052604160045260246000fd5b612ce5806200054a6000396000f3fe608060405234801561001057600080fd5b5060043610610201576000357c0100000000000000000000000000000000000000000000000000000000900480636d1d50531161012c578063bb62115e116100bf578063eefdca531161008e578063eefdca531461044a578063f242432a1461045d578063f2fde38b14610470578063f5298aca1461048357600080fd5b8063bb62115e146103ea578063d2b04fd6146103f3578063e5c57f2614610406578063e985e9c51461040e57600080fd5b806395d89b41116100fb57806395d89b4114610399578063983b2d56146103a1578063a22cb465146103b4578063ad25ca29146103c757600080fd5b80636d1d50531461035b578063715018a614610363578063862440e21461036b5780638da5cb5b1461037e57600080fd5b80632eb2c2d6116101a457806355f804b31161017357806355f804b31461031b5780635c975abb1461032e5780636b20c454146103405780636c0360eb1461035357600080fd5b80632eb2c2d6146102c25780633092afd5146102d5578063428a328b146102e85780634e1273f4146102fb57600080fd5b80630e89341c116101e05780630e89341c1461026457806312532a96146102775780631bf66f371461028c5780631f3b4c901461029f57600080fd5b8062fdd58e1461020657806301ffc9a71461022c57806306fdde031461024f575b600080fd5b6102196102143660046122ad565b610496565b6040519081526020015b60405180910390f35b61023f61023a366004612482565b610542565b6040519015158152602001610223565b6102576105df565b6040516102239190612762565b6102576102723660046124f9565b61066d565b61028a6102853660046124f9565b6106e8565b005b61028a61029a366004612428565b610730565b61023f6102ad366004612000565b60086020526000908152604090205460ff1681565b61028a6102d0366004612055565b6107c1565b61028a6102e3366004612000565b6108cb565b61028a6102f6366004612164565b610919565b61030e610309366004612359565b6109f6565b604051610223919061272a565b61028a6103293660046124bc565b610b37565b60035460a060020a900460ff1661023f565b61028a61034e3660046121fd565b610b7b565b610257610bb3565b61028a610bc0565b61028a610bf7565b61028a610379366004612512565b610c2e565b600354604051600160a060020a039091168152602001610223565b610257610c7f565b61028a6103af366004612000565b610c8c565b61028a6103c2366004612271565b610cdd565b61023f6103d53660046124f9565b60096020526000908152604090205460ff1681565b610219600a5481565b6102196104013660046122d7565b610dcb565b61028a610e30565b61023f61041c366004612022565b600160a060020a03918216600090815260016020908152604080832093909416825291909152205460ff1690565b61028a6104583660046124f9565b610e65565b61028a61046b3660046120ff565b610eaa565b61028a61047e366004612000565b610f6c565b61028a610491366004612326565b611024565b6000600160a060020a03831661051c5760405160e560020a62461bcd02815260206004820152602b60248201527f455243313135353a2062616c616e636520717565727920666f7220746865207a60448201527f65726f206164647265737300000000000000000000000000000000000000000060648201526084015b60405180910390fd5b50600090815260208181526040808320600160a060020a03949094168352929052205490565b6000600160e060020a031982167fd9b67a260000000000000000000000000000000000000000000000000000000014806105a55750600160e060020a031982167f0e89341c00000000000000000000000000000000000000000000000000000000145b806105d957507f01ffc9a700000000000000000000000000000000000000000000000000000000600160e060020a03198316145b92915050565b600480546105ec90612b05565b80601f016020809104026020016040519081016040528092919081815260200182805461061890612b05565b80156106655780601f1061063a57610100808354040283529160200191610665565b820191906000526020600020905b81548152906001019060200180831161064857829003601f168201915b505050505081565b60008181526007602052604081208054606092919061068b90612b05565b905011156106cf576006600760008481526020019081526020016000206040516020016106b9929190612674565b6040516020818303038152906040529050919050565b505060408051602081019091526000815290565b919050565b600354600160a060020a031633146107155760405160e560020a62461bcd028152600401610513906129da565b6000908152600960205260409020805460ff19166001179055565b3360009081526008602052604090205460ff166107625760405160e560020a62461bcd028152600401610513906127d2565b60005b82518110156107bc576107aa83828151811061078357610783612ba4565b602002602001015183838151811061079d5761079d612ba4565b6020026020010151610c2e565b806107b481612b70565b915050610765565b505050565b60035460a060020a900460ff16156107ee5760405160e560020a62461bcd0281526004016105139061288c565b60005b83518110156108b6576009600085838151811061081057610810612ba4565b60209081029190910181015182528101919091526040016000205460ff16156108a45760405160e560020a62461bcd02815260206004820152602e60248201527f455243313135353a205472616e736665722064697361626c656420666f72206f60448201527f6e65206f6620746865204e4654730000000000000000000000000000000000006064820152608401610513565b806108ae81612b70565b9150506107f1565b506108c4858585858561105c565b5050505050565b600354600160a060020a031633146108f85760405160e560020a62461bcd028152600401610513906129da565b600160a060020a03166000908152600860205260409020805460ff19169055565b3360009081526008602052604090205460ff1661094b5760405160e560020a62461bcd028152600401610513906127d2565b6000835167ffffffffffffffff81111561096757610967612bbd565b604051908082528060200260200182016040528015610990578160200160208202803683370190505b50905060005b84518110156109df576109a76110fa565b8282815181106109b9576109b9612ba4565b6020026020010181815250506109cd611110565b806109d781612b70565b915050610996565b506109ec85828585611127565b6108c48185610730565b60608151835114610a725760405160e560020a62461bcd02815260206004820152602960248201527f455243313135353a206163636f756e747320616e6420696473206c656e67746860448201527f206d69736d6174636800000000000000000000000000000000000000000000006064820152608401610513565b6000835167ffffffffffffffff811115610a8e57610a8e612bbd565b604051908082528060200260200182016040528015610ab7578160200160208202803683370190505b50905060005b8451811015610b2f57610b02858281518110610adb57610adb612ba4565b6020026020010151858381518110610af557610af5612ba4565b6020026020010151610496565b828281518110610b1457610b14612ba4565b6020908102919091010152610b2881612b70565b9050610abd565b509392505050565b600354600160a060020a03163314610b645760405160e560020a62461bcd028152600401610513906129da565b8051610b77906006906020840190611dcd565b5050565b600354600160a060020a03163314610ba85760405160e560020a62461bcd028152600401610513906129da565b6107bc838383611278565b600680546105ec90612b05565b600354600160a060020a03163314610bed5760405160e560020a62461bcd028152600401610513906129da565b610bf56113fd565b565b600354600160a060020a03163314610c245760405160e560020a62461bcd028152600401610513906129da565b610bf56000611493565b3360009081526008602052604090205460ff16610c605760405160e560020a62461bcd028152600401610513906127d2565b600082815260076020908152604090912082516107bc92840190611dcd565b600580546105ec90612b05565b600354600160a060020a03163314610cb95760405160e560020a62461bcd028152600401610513906129da565b600160a060020a03166000908152600860205260409020805460ff19166001179055565b33600160a060020a0383161415610d5f5760405160e560020a62461bcd02815260206004820152602960248201527f455243313135353a2073657474696e6720617070726f76616c2073746174757360448201527f20666f722073656c6600000000000000000000000000000000000000000000006064820152608401610513565b336000818152600160209081526040808320600160a060020a03871680855290835292819020805460ff191686151590811790915590519081529192917f17307eab39ab6107e8899845ad3d59bd9653f200f220920489ca2b5937696c31910160405180910390a35050565b3360009081526008602052604081205460ff16610dfd5760405160e560020a62461bcd028152600401610513906127d2565b6000610e076110fa565b9050610e15868287866114f2565b610e1f8185610c2e565b610e27611110565b95945050505050565b600354600160a060020a03163314610e5d5760405160e560020a62461bcd028152600401610513906129da565b610bf56115c5565b600354600160a060020a03163314610e925760405160e560020a62461bcd028152600401610513906129da565b6000908152600960205260409020805460ff19169055565b60035460a060020a900460ff1615610ed75760405160e560020a62461bcd0281526004016105139061288c565b60008381526009602052604090205460ff1615610f5f5760405160e560020a62461bcd02815260206004820152602760248201527f455243313135353a205472616e736665722064697361626c656420666f72207460448201527f686973204e4654000000000000000000000000000000000000000000000000006064820152608401610513565b6108c48585858585611666565b600354600160a060020a03163314610f995760405160e560020a62461bcd028152600401610513906129da565b600160a060020a0381166110185760405160e560020a62461bcd02815260206004820152602660248201527f4f776e61626c653a206e6577206f776e657220697320746865207a65726f206160448201527f64647265737300000000000000000000000000000000000000000000000000006064820152608401610513565b61102181611493565b50565b600354600160a060020a031633146110515760405160e560020a62461bcd028152600401610513906129da565b6107bc838383611704565b600160a060020a0385163314806110785750611078853361041c565b6110ed5760405160e560020a62461bcd02815260206004820152603260248201527f455243313135353a207472616e736665722063616c6c6572206973206e6f742060448201527f6f776e6572206e6f7220617070726f76656400000000000000000000000000006064820152608401610513565b6108c4858585858561180c565b6000600a54600161110b9190612aed565b905090565b600a805490600061112083612b70565b9190505550565b600160a060020a0384166111505760405160e560020a62461bcd02815260040161051390612a6c565b81518351146111745760405160e560020a62461bcd02815260040161051390612a0f565b3360005b84518110156112105783818151811061119357611193612ba4565b60200260200101516000808784815181106111b0576111b0612ba4565b60200260200101518152602001908152602001600020600088600160a060020a0316600160a060020a0316815260200190815260200160002060008282546111f89190612aed565b9091555081905061120881612b70565b915050611178565b5084600160a060020a03166000600160a060020a031682600160a060020a03167f4a39dc06d4c0dbc64b70af90fd698a233a518aa5d07e595d983b8c0526c8f7fb878760405161126192919061273d565b60405180910390a46108c4816000878787876119b1565b600160a060020a0383166112a15760405160e560020a62461bcd02815260040161051390612920565b80518251146112c55760405160e560020a62461bcd02815260040161051390612a0f565b604080516020810190915260009081905233905b835181101561139e5760008482815181106112f6576112f6612ba4565b60200260200101519050600084838151811061131457611314612ba4565b60209081029190910181015160008481528083526040808220600160a060020a038c1683529093529190912054909150818110156113675760405160e560020a62461bcd0281526004016105139061282f565b600092835260208381526040808520600160a060020a038b168652909152909220910390558061139681612b70565b9150506112d9565b506000600160a060020a031684600160a060020a031682600160a060020a03167f4a39dc06d4c0dbc64b70af90fd698a233a518aa5d07e595d983b8c0526c8f7fb86866040516113ef92919061273d565b60405180910390a450505050565b60035460a060020a900460ff161561142a5760405160e560020a62461bcd0281526004016105139061288c565b6003805474ff0000000000000000000000000000000000000000191660a060020a1790557f62e78cea01bee320cd4e420270b5ea74000d11b0c9f74754ebdbfc544b05a2586114763390565b604051600160a060020a03909116815260200160405180910390a1565b60038054600160a060020a0383811673ffffffffffffffffffffffffffffffffffffffff19831681179093556040519116919082907f8be0079c531659141344cd1fd0a4f28419497f9722a3daafe3b4186f6b6457e090600090a35050565b600160a060020a03841661151b5760405160e560020a62461bcd02815260040161051390612a6c565b336115358160008761152c88611b69565b6108c488611b69565b600084815260208181526040808320600160a060020a038916845290915281208054859290611565908490612aed565b90915550506040805185815260208101859052600160a060020a0380881692600092918516917fc3d58168c5ae7397731d063d5bbf3d657854427343f4c083240f7aacaa2d0f62910160405180910390a46108c481600087878787611bb4565b60035460a060020a900460ff166116215760405160e560020a62461bcd02815260206004820152601460248201527f5061757361626c653a206e6f74207061757365640000000000000000000000006044820152606401610513565b6003805474ff0000000000000000000000000000000000000000191690557f5db9ee0a495bf2e6ff9c91a7834c1ba4fdd244a5e8aa4e537bd38aeae4b073aa33611476565b600160a060020a0385163314806116825750611682853361041c565b6116f75760405160e560020a62461bcd02815260206004820152602960248201527f455243313135353a2063616c6c6572206973206e6f74206f776e6572206e6f7260448201527f20617070726f76656400000000000000000000000000000000000000000000006064820152608401610513565b6108c48585858585611cb3565b600160a060020a03831661172d5760405160e560020a62461bcd02815260040161051390612920565b3361175d8185600061173e87611b69565b61174787611b69565b5050604080516020810190915260009052505050565b600083815260208181526040808320600160a060020a0388168452909152902054828110156117a15760405160e560020a62461bcd0281526004016105139061282f565b600084815260208181526040808320600160a060020a03898116808652918452828520888703905582518981529384018890529092908616917fc3d58168c5ae7397731d063d5bbf3d657854427343f4c083240f7aacaa2d0f62910160405180910390a45050505050565b81518351146118305760405160e560020a62461bcd02815260040161051390612a0f565b600160a060020a0384166118595760405160e560020a62461bcd028152600401610513906128c3565b3360005b845181101561194357600085828151811061187a5761187a612ba4565b60200260200101519050600085838151811061189857611898612ba4565b60209081029190910181015160008481528083526040808220600160a060020a038e1683529093529190912054909150818110156118eb5760405160e560020a62461bcd0281526004016105139061297d565b600083815260208181526040808320600160a060020a038e8116855292528083208585039055908b16825281208054849290611928908490612aed565b925050819055505050508061193c90612b70565b905061185d565b5084600160a060020a031686600160a060020a031682600160a060020a03167f4a39dc06d4c0dbc64b70af90fd698a233a518aa5d07e595d983b8c0526c8f7fb878760405161199392919061273d565b60405180910390a46119a98187878787876119b1565b505050505050565b600160a060020a0384163b156119a9576040517fbc197c81000000000000000000000000000000000000000000000000000000008152600160a060020a0385169063bc197c8190611a0e9089908990889088908890600401612689565b602060405180830381600087803b158015611a2857600080fd5b505af1925050508015611a58575060408051601f3d908101601f19168201909252611a559181019061249f565b60015b611b1457611a64612bd6565b806308c379a01415611aa15750611a79612c0f565b80611a845750611aa3565b8060405160e560020a62461bcd0281526004016105139190612762565b505b60405160e560020a62461bcd02815260206004820152603460248201527f455243313135353a207472616e7366657220746f206e6f6e204552433131353560448201527f526563656976657220696d706c656d656e7465720000000000000000000000006064820152608401610513565b600160e060020a031981167fbc197c810000000000000000000000000000000000000000000000000000000014611b605760405160e560020a62461bcd02815260040161051390612775565b50505050505050565b60408051600180825281830190925260609160009190602080830190803683370190505090508281600081518110611ba357611ba3612ba4565b602090810291909101015292915050565b600160a060020a0384163b156119a9576040517ff23a6e61000000000000000000000000000000000000000000000000000000008152600160a060020a0385169063f23a6e6190611c1190899089908890889088906004016126e7565b602060405180830381600087803b158015611c2b57600080fd5b505af1925050508015611c5b575060408051601f3d908101601f19168201909252611c589181019061249f565b60015b611c6757611a64612bd6565b600160e060020a031981167ff23a6e610000000000000000000000000000000000000000000000000000000014611b605760405160e560020a62461bcd02815260040161051390612775565b600160a060020a038416611cdc5760405160e560020a62461bcd028152600401610513906128c3565b33611cec81878761152c88611b69565b600084815260208181526040808320600160a060020a038a16845290915290205483811015611d305760405160e560020a62461bcd0281526004016105139061297d565b600085815260208181526040808320600160a060020a038b8116855292528083208785039055908816825281208054869290611d6d908490612aed565b90915550506040805186815260208101869052600160a060020a03808916928a821692918616917fc3d58168c5ae7397731d063d5bbf3d657854427343f4c083240f7aacaa2d0f62910160405180910390a4611b60828888888888611bb4565b828054611dd990612b05565b90600052602060002090601f016020900481019282611dfb5760008555611e41565b82601f10611e1457805160ff1916838001178555611e41565b82800160010185558215611e41579182015b82811115611e41578251825591602001919060010190611e26565b50611e4d929150611e51565b5090565b5b80821115611e4d5760008155600101611e52565b8035600160a060020a03811681146106e357600080fd5b600082601f830112611e8e57600080fd5b81356020611e9b82612ac9565b604051611ea88282612b43565b838152828101915085830183850287018401881015611ec657600080fd5b6000805b86811015611f0957823567ffffffffffffffff811115611ee8578283fd5b611ef68b88838d0101611f8c565b8652509385019391850191600101611eca565b509198975050505050505050565b600082601f830112611f2857600080fd5b81356020611f3582612ac9565b604051611f428282612b43565b838152828101915085830183850287018401881015611f6057600080fd5b60005b85811015611f7f57813584529284019290840190600101611f63565b5090979650505050505050565b600082601f830112611f9d57600080fd5b813567ffffffffffffffff811115611fb757611fb7612bbd565b604051611fce601f8301601f191660200182612b43565b818152846020838601011115611fe357600080fd5b816020850160208301376000918101602001919091529392505050565b60006020828403121561201257600080fd5b61201b82611e66565b9392505050565b6000806040838503121561203557600080fd5b61203e83611e66565b915061204c60208401611e66565b90509250929050565b600080600080600060a0868803121561206d57600080fd5b61207686611e66565b945061208460208701611e66565b9350604086013567ffffffffffffffff808211156120a157600080fd5b6120ad89838a01611f17565b945060608801359150808211156120c357600080fd5b6120cf89838a01611f17565b935060808801359150808211156120e557600080fd5b506120f288828901611f8c565b9150509295509295909350565b600080600080600060a0868803121561211757600080fd5b61212086611e66565b945061212e60208701611e66565b93506040860135925060608601359150608086013567ffffffffffffffff81111561215857600080fd5b6120f288828901611f8c565b6000806000806080858703121561217a57600080fd5b61218385611e66565b9350602085013567ffffffffffffffff808211156121a057600080fd5b6121ac88838901611e7d565b945060408701359150808211156121c257600080fd5b6121ce88838901611f17565b935060608701359150808211156121e457600080fd5b506121f187828801611f8c565b91505092959194509250565b60008060006060848603121561221257600080fd5b61221b84611e66565b9250602084013567ffffffffffffffff8082111561223857600080fd5b61224487838801611f17565b9350604086013591508082111561225a57600080fd5b5061226786828701611f17565b9150509250925092565b6000806040838503121561228457600080fd5b61228d83611e66565b9150602083013580151581146122a257600080fd5b809150509250929050565b600080604083850312156122c057600080fd5b6122c983611e66565b946020939093013593505050565b600080600080608085870312156122ed57600080fd5b6122f685611e66565b935060208501359250604085013567ffffffffffffffff8082111561231a57600080fd5b6121ce88838901611f8c565b60008060006060848603121561233b57600080fd5b61234484611e66565b95602085013595506040909401359392505050565b6000806040838503121561236c57600080fd5b823567ffffffffffffffff8082111561238457600080fd5b818501915085601f83011261239857600080fd5b813560206123a582612ac9565b6040516123b28282612b43565b8381528281019150858301838502870184018b10156123d057600080fd5b600096505b848710156123fa576123e681611e66565b8352600196909601959183019183016123d5565b509650508601359250508082111561241157600080fd5b5061241e85828601611f17565b9150509250929050565b6000806040838503121561243b57600080fd5b823567ffffffffffffffff8082111561245357600080fd5b61245f86838701611f17565b9350602085013591508082111561247557600080fd5b5061241e85828601611e7d565b60006020828403121561249457600080fd5b813561201b81612c99565b6000602082840312156124b157600080fd5b815161201b81612c99565b6000602082840312156124ce57600080fd5b813567ffffffffffffffff8111156124e557600080fd5b6124f184828501611f8c565b949350505050565b60006020828403121561250b57600080fd5b5035919050565b6000806040838503121561252557600080fd5b82359150602083013567ffffffffffffffff81111561254357600080fd5b61241e85828601611f8c565b600081518084526020808501945080840160005b8381101561257f57815187529582019590820190600101612563565b509495945050505050565b6000815180845260005b818110156125b057602081850181015186830182015201612594565b818111156125c2576000602083870101525b50601f01601f19169290920160200192915050565b8054600090600281046001808316806125f157607f831692505b60208084108214156126165760e060020a634e487b7102600052602260045260246000fd5b81801561262a576001811461263b57612668565b60ff19861689528489019650612668565b60008881526020902060005b868110156126605781548b820152908501908301612647565b505084890196505b50505050505092915050565b60006124f161268383866125d7565b846125d7565b6000600160a060020a03808816835280871660208401525060a060408301526126b560a083018661254f565b82810360608401526126c7818661254f565b905082810360808401526126db818561258a565b98975050505050505050565b6000600160a060020a03808816835280871660208401525084604083015283606083015260a0608083015261271f60a083018461258a565b979650505050505050565b60208152600061201b602083018461254f565b604081526000612750604083018561254f565b8281036020840152610e27818561254f565b60208152600061201b602083018461258a565b60208082526028908201527f455243313135353a204552433131353552656365697665722072656a6563746560408201527f6420746f6b656e73000000000000000000000000000000000000000000000000606082015260800190565b6020808252602c908201527f455243313135353a204f6e6c79206d696e746572732063616e2063616c6c207460408201527f6869732066756e6374696f6e0000000000000000000000000000000000000000606082015260800190565b60208082526024908201527f455243313135353a206275726e20616d6f756e7420657863656564732062616c60408201527f616e636500000000000000000000000000000000000000000000000000000000606082015260800190565b60208082526010908201527f5061757361626c653a2070617573656400000000000000000000000000000000604082015260600190565b60208082526025908201527f455243313135353a207472616e7366657220746f20746865207a65726f20616460408201527f6472657373000000000000000000000000000000000000000000000000000000606082015260800190565b60208082526023908201527f455243313135353a206275726e2066726f6d20746865207a65726f206164647260408201527f6573730000000000000000000000000000000000000000000000000000000000606082015260800190565b6020808252602a908201527f455243313135353a20696e73756666696369656e742062616c616e636520666f60408201527f72207472616e7366657200000000000000000000000000000000000000000000606082015260800190565b6020808252818101527f4f776e61626c653a2063616c6c6572206973206e6f7420746865206f776e6572604082015260600190565b60208082526028908201527f455243313135353a2069647320616e6420616d6f756e7473206c656e6774682060408201527f6d69736d61746368000000000000000000000000000000000000000000000000606082015260800190565b60208082526021908201527f455243313135353a206d696e7420746f20746865207a65726f2061646472657360408201527f7300000000000000000000000000000000000000000000000000000000000000606082015260800190565b600067ffffffffffffffff821115612ae357612ae3612bbd565b5060209081020190565b60008219821115612b0057612b00612b8b565b500190565b600281046001821680612b1957607f821691505b60208210811415612b3d5760e060020a634e487b7102600052602260045260246000fd5b50919050565b601f8201601f1916810167ffffffffffffffff81118282101715612b6957612b69612bbd565b6040525050565b6000600019821415612b8457612b84612b8b565b5060010190565b60e060020a634e487b7102600052601160045260246000fd5b60e060020a634e487b7102600052603260045260246000fd5b60e060020a634e487b7102600052604160045260246000fd5b600060033d1115612c0c5760046000803e7c01000000000000000000000000000000000000000000000000000000006000510490505b90565b600060443d1015612c1d5790565b6040516003193d81016004833e81513d67ffffffffffffffff8160248401118184111715612c4d57505050505090565b8285019150815181811115612c655750505050505090565b843d8701016020828501011115612c7f5750505050505090565b612c8e60208286010187612b43565b509095945050505050565b600160e060020a03198116811461102157600080fdfea2646970667358221220d187419bb72c039fcd2a30e786df21272f14d2a367250801d31ab40d57940a6964736f6c63430008070033",
  "immutableReferences": {},
  "source": "//SPDX-License-Identifier: UNLICENSED\npragma solidity ^0.8.7;\n\nimport \"@openzeppelin/contracts/utils/Context.sol\";\nimport \"@openzeppelin/contracts/security/Pausable.sol\";\nimport \"@openzeppelin/contracts/token/ERC1155/ERC1155.sol\";\nimport \"@openzeppelin/contracts/access/Ownable.sol\";\n\ncontract AWST_NSM is ERC1155, Ownable, Pausable {\n\n    string public name;\n    string public symbol;\n    string public baseURI;\n    \n    mapping(uint256 => string) private _tokenURIs;\n    mapping(address => bool) public isAllowedMinter;\n    mapping(uint256 => bool) public isDisabled;\n\n    uint256 public currentTokenID;\n\n    modifier onlyMinter() {\n        require(\n            isAllowedMinter[_msgSender()],\n            \"ERC1155: Only minters can call this function\"\n        );\n        _;\n    }\n\n    constructor(\n        string memory _name,\n        string memory _symbol,\n        string memory _baseURI,\n        bool _isPaused\n    ) ERC1155(_baseURI) {\n        name = _name;\n        symbol = _symbol;\n        baseURI = _baseURI;\n        isAllowedMinter[_msgSender()] = true;\n\n        if(_isPaused) {\n            _pause();\n        }\n    }\n\n    /**\n     * @dev used for setting the base uri of the collection\n     */\n    function setBaseURI(string memory _baseURI) public onlyOwner {\n        baseURI = _baseURI;\n    }\n\n    /**\n     * @dev disable the transfer of a single token\n     */\n    function disableSingle(uint256 _tokenID) public onlyOwner {\n        isDisabled[_tokenID] = true;\n    }\n\n    /**\n     * @dev enable the transfer of a single token\n     */\n    function enableSingle(uint256 _tokenID) public onlyOwner {\n        isDisabled[_tokenID] = false;\n    }\n\n    /**\n     * @dev disable the transfer of all tokens\n     */\n    function disableCollection() public onlyOwner {\n        _pause();\n    }\n\n    /**\n     * @dev enable the transfer of all tokens\n     */\n    function enableCollection() public onlyOwner {\n        _unpause();\n    }\n\n    function uri(uint256 _id) public view override returns (string memory) {\n        if (bytes(_tokenURIs[_id]).length > 0) {\n            return string(abi.encodePacked(baseURI, _tokenURIs[_id]));\n        } else {\n            return \"\";\n        }\n    }\n\n    function setURI(uint256 _tokenId, string memory _uri) public onlyMinter {\n        _tokenURIs[_tokenId] = _uri;\n    }\n\n    function setBatchURI(uint256[] memory ids, string[] memory uris)\n        public\n        onlyMinter\n    {\n        for (uint256 i = 0; i < ids.length; i++) {\n            setURI(ids[i], uris[i]);\n        }\n    }\n\n    function mint(\n        address account,\n        uint256 amount,\n        string memory _uri,\n        bytes memory data\n    ) public onlyMinter returns (uint256) {\n        uint256 tokenId = _getNextTokenID();\n        _mint(account, tokenId, amount, data);\n        setURI(tokenId, _uri);\n        _incrementTokenId();\n        return tokenId;\n    }\n\n    function mintBatch(\n        address to,\n        string[] memory uris,\n        uint256[] memory values,\n        bytes memory data\n    ) public onlyMinter {\n        uint256[] memory ids = new uint256[](uris.length);\n        for (uint256 i = 0; i < uris.length; i++) {\n            ids[i] = _getNextTokenID();\n            _incrementTokenId();\n        }\n        _mintBatch(to, ids, values, data);\n        setBatchURI(ids, uris);\n    }\n\n    function safeTransferFrom(\n        address from,\n        address to,\n        uint256 id,\n        uint256 amount,\n        bytes memory data\n    ) public override whenNotPaused {\n        require(!isDisabled[id], \"ERC1155: Transfer disabled for this NFT\");\n        super.safeTransferFrom(from, to, id, amount, data);\n    }\n\n    function safeBatchTransferFrom(\n        address from,\n        address to,\n        uint256[] memory ids,\n        uint256[] memory amounts,\n        bytes memory data\n    ) public override whenNotPaused {\n        \n        for (uint256 i = 0; i < ids.length; i++) {\n            require(\n                !isDisabled[ids[i]],\n                \"ERC1155: Transfer disabled for one of the NFTs\"\n            );\n        }\n        super.safeBatchTransferFrom(from, to, ids, amounts, data);\n    }\n\n    function burn(\n        address owner,\n        uint256 id,\n        uint256 value\n    ) public onlyOwner {\n        _burn(owner, id, value);\n    }\n\n    function burnBatch(\n        address owner,\n        uint256[] memory ids,\n        uint256[] memory values\n    ) public onlyOwner {\n        _burnBatch(owner, ids, values);\n    }\n\n    function addMinter(address account) public onlyOwner {\n        isAllowedMinter[account] = true;\n    }\n\n    function removeMinter(address account) public onlyOwner {\n        isAllowedMinter[account] = false;\n    }\n\n    function _getNextTokenID() private view returns (uint256) {\n        return currentTokenID + 1;\n    }\n\n    /**\n     * @dev increments the value of _currentTokenID\n     */\n    function _incrementTokenId() private {\n        currentTokenID++;\n    }\n\n}\n",
  "sourcePath": "/home/saeed/Desktop/ArtWallStreet/AWST/contracts/ERC1155.sol",
  "compiler": {
    "name": "solc",
    "version": "0.8.7+commit.e28d00a7.Emscripten.clang"
  },
  "schemaVersion": "3.3.4",
  "updatedAt": "2022-09-09T09:41:12.254Z",
  "networkType": "ethereum",
  "devdoc": {
    "kind": "dev",
    "methods": {
      "balanceOf(address,uint256)": {
        "details": "See {IERC1155-balanceOf}. Requirements: - `account` cannot be the zero address."
      },
      "balanceOfBatch(address[],uint256[])": {
        "details": "See {IERC1155-balanceOfBatch}. Requirements: - `accounts` and `ids` must have the same length."
      },
      "disableCollection()": {
        "details": "disable the transfer of all tokens"
      },
      "disableSingle(uint256)": {
        "details": "disable the transfer of a single token"
      },
      "enableCollection()": {
        "details": "enable the transfer of all tokens"
      },
      "enableSingle(uint256)": {
        "details": "enable the transfer of a single token"
      },
      "isApprovedForAll(address,address)": {
        "details": "See {IERC1155-isApprovedForAll}."
      },
      "owner()": {
        "details": "Returns the address of the current owner."
      },
      "paused()": {
        "details": "Returns true if the contract is paused, and false otherwise."
      },
      "renounceOwnership()": {
        "details": "Leaves the contract without owner. It will not be possible to call `onlyOwner` functions anymore. Can only be called by the current owner. NOTE: Renouncing ownership will leave the contract without an owner, thereby removing any functionality that is only available to the owner."
      },
      "safeBatchTransferFrom(address,address,uint256[],uint256[],bytes)": {
        "details": "See {IERC1155-safeBatchTransferFrom}."
      },
      "safeTransferFrom(address,address,uint256,uint256,bytes)": {
        "details": "See {IERC1155-safeTransferFrom}."
      },
      "setApprovalForAll(address,bool)": {
        "details": "See {IERC1155-setApprovalForAll}."
      },
      "setBaseURI(string)": {
        "details": "used for setting the base uri of the collection"
      },
      "supportsInterface(bytes4)": {
        "details": "See {IERC165-supportsInterface}."
      },
      "transferOwnership(address)": {
        "details": "Transfers ownership of the contract to a new account (`newOwner`). Can only be called by the current owner."
      }
    },
    "version": 1
  },
  "userdoc": {
    "kind": "user",
    "methods": {},
    "version": 1
  }
}