{
  "contractName": "AWST_NSM",
  "abi": [
    {
      "inputs": [
        {
          "internalType": "string",
          "name": "_name",
          "type": "string"
        },
        {
          "internalType": "string",
          "name": "_symbol",
          "type": "string"
        },
        {
          "internalType": "string",
          "name": "_baseURI",
          "type": "string"
        },
        {
          "internalType": "bool",
          "name": "_isPaused",
          "type": "bool"
        }
      ],
      "stateMutability": "nonpayable",
      "type": "constructor"
    },
    {
      "anonymous": false,
      "inputs": [
        {
          "indexed": true,
          "internalType": "address",
          "name": "account",
          "type": "address"
        },
        {
          "indexed": true,
          "internalType": "address",
          "name": "operator",
          "type": "address"
        },
        {
          "indexed": false,
          "internalType": "bool",
          "name": "approved",
          "type": "bool"
        }
      ],
      "name": "ApprovalForAll",
      "type": "event"
    },
    {
      "anonymous": false,
      "inputs": [
        {
          "indexed": true,
          "internalType": "address",
          "name": "previousOwner",
          "type": "address"
        },
        {
          "indexed": true,
          "internalType": "address",
          "name": "newOwner",
          "type": "address"
        }
      ],
      "name": "OwnershipTransferred",
      "type": "event"
    },
    {
      "anonymous": false,
      "inputs": [
        {
          "indexed": false,
          "internalType": "address",
          "name": "account",
          "type": "address"
        }
      ],
      "name": "Paused",
      "type": "event"
    },
    {
      "anonymous": false,
      "inputs": [
        {
          "indexed": true,
          "internalType": "address",
          "name": "operator",
          "type": "address"
        },
        {
          "indexed": true,
          "internalType": "address",
          "name": "from",
          "type": "address"
        },
        {
          "indexed": true,
          "internalType": "address",
          "name": "to",
          "type": "address"
        },
        {
          "indexed": false,
          "internalType": "uint256[]",
          "name": "ids",
          "type": "uint256[]"
        },
        {
          "indexed": false,
          "internalType": "uint256[]",
          "name": "values",
          "type": "uint256[]"
        }
      ],
      "name": "TransferBatch",
      "type": "event"
    },
    {
      "anonymous": false,
      "inputs": [
        {
          "indexed": true,
          "internalType": "address",
          "name": "operator",
          "type": "address"
        },
        {
          "indexed": true,
          "internalType": "address",
          "name": "from",
          "type": "address"
        },
        {
          "indexed": true,
          "internalType": "address",
          "name": "to",
          "type": "address"
        },
        {
          "indexed": false,
          "internalType": "uint256",
          "name": "id",
          "type": "uint256"
        },
        {
          "indexed": false,
          "internalType": "uint256",
          "name": "value",
          "type": "uint256"
        }
      ],
      "name": "TransferSingle",
      "type": "event"
    },
    {
      "anonymous": false,
      "inputs": [
        {
          "indexed": false,
          "internalType": "string",
          "name": "value",
          "type": "string"
        },
        {
          "indexed": true,
          "internalType": "uint256",
          "name": "id",
          "type": "uint256"
        }
      ],
      "name": "URI",
      "type": "event"
    },
    {
      "anonymous": false,
      "inputs": [
        {
          "indexed": false,
          "internalType": "address",
          "name": "account",
          "type": "address"
        }
      ],
      "name": "Unpaused",
      "type": "event"
    },
    {
      "inputs": [
        {
          "internalType": "address",
          "name": "account",
          "type": "address"
        },
        {
          "internalType": "uint256",
          "name": "id",
          "type": "uint256"
        }
      ],
      "name": "balanceOf",
      "outputs": [
        {
          "internalType": "uint256",
          "name": "",
          "type": "uint256"
        }
      ],
      "stateMutability": "view",
      "type": "function",
      "constant": true
    },
    {
      "inputs": [
        {
          "internalType": "address[]",
          "name": "accounts",
          "type": "address[]"
        },
        {
          "internalType": "uint256[]",
          "name": "ids",
          "type": "uint256[]"
        }
      ],
      "name": "balanceOfBatch",
      "outputs": [
        {
          "internalType": "uint256[]",
          "name": "",
          "type": "uint256[]"
        }
      ],
      "stateMutability": "view",
      "type": "function",
      "constant": true
    },
    {
      "inputs": [],
      "name": "baseURI",
      "outputs": [
        {
          "internalType": "string",
          "name": "",
          "type": "string"
        }
      ],
      "stateMutability": "view",
      "type": "function",
      "constant": true
    },
    {
      "inputs": [],
      "name": "currentTokenID",
      "outputs": [
        {
          "internalType": "uint256",
          "name": "",
          "type": "uint256"
        }
      ],
      "stateMutability": "view",
      "type": "function",
      "constant": true
    },
    {
      "inputs": [
        {
          "internalType": "address",
          "name": "",
          "type": "address"
        }
      ],
      "name": "isAllowedMinter",
      "outputs": [
        {
          "internalType": "bool",
          "name": "",
          "type": "bool"
        }
      ],
      "stateMutability": "view",
      "type": "function",
      "constant": true
    },
    {
      "inputs": [
        {
          "internalType": "address",
          "name": "account",
          "type": "address"
        },
        {
          "internalType": "address",
          "name": "operator",
          "type": "address"
        }
      ],
      "name": "isApprovedForAll",
      "outputs": [
        {
          "internalType": "bool",
          "name": "",
          "type": "bool"
        }
      ],
      "stateMutability": "view",
      "type": "function",
      "constant": true
    },
    {
      "inputs": [
        {
          "internalType": "uint256",
          "name": "",
          "type": "uint256"
        }
      ],
      "name": "isDisabled",
      "outputs": [
        {
          "internalType": "bool",
          "name": "",
          "type": "bool"
        }
      ],
      "stateMutability": "view",
      "type": "function",
      "constant": true
    },
    {
      "inputs": [],
      "name": "name",
      "outputs": [
        {
          "internalType": "string",
          "name": "",
          "type": "string"
        }
      ],
      "stateMutability": "view",
      "type": "function",
      "constant": true
    },
    {
      "inputs": [],
      "name": "owner",
      "outputs": [
        {
          "internalType": "address",
          "name": "",
          "type": "address"
        }
      ],
      "stateMutability": "view",
      "type": "function",
      "constant": true
    },
    {
      "inputs": [],
      "name": "paused",
      "outputs": [
        {
          "internalType": "bool",
          "name": "",
          "type": "bool"
        }
      ],
      "stateMutability": "view",
      "type": "function",
      "constant": true
    },
    {
      "inputs": [],
      "name": "renounceOwnership",
      "outputs": [],
      "stateMutability": "nonpayable",
      "type": "function"
    },
    {
      "inputs": [
        {
          "internalType": "address",
          "name": "operator",
          "type": "address"
        },
        {
          "internalType": "bool",
          "name": "approved",
          "type": "bool"
        }
      ],
      "name": "setApprovalForAll",
      "outputs": [],
      "stateMutability": "nonpayable",
      "type": "function"
    },
    {
      "inputs": [
        {
          "internalType": "bytes4",
          "name": "interfaceId",
          "type": "bytes4"
        }
      ],
      "name": "supportsInterface",
      "outputs": [
        {
          "internalType": "bool",
          "name": "",
          "type": "bool"
        }
      ],
      "stateMutability": "view",
      "type": "function",
      "constant": true
    },
    {
      "inputs": [],
      "name": "symbol",
      "outputs": [
        {
          "internalType": "string",
          "name": "",
          "type": "string"
        }
      ],
      "stateMutability": "view",
      "type": "function",
      "constant": true
    },
    {
      "inputs": [
        {
          "internalType": "address",
          "name": "newOwner",
          "type": "address"
        }
      ],
      "name": "transferOwnership",
      "outputs": [],
      "stateMutability": "nonpayable",
      "type": "function"
    },
    {
      "inputs": [
        {
          "internalType": "string",
          "name": "_baseURI",
          "type": "string"
        }
      ],
      "name": "setBaseURI",
      "outputs": [],
      "stateMutability": "nonpayable",
      "type": "function"
    },
    {
      "inputs": [
        {
          "internalType": "uint256",
          "name": "_tokenID",
          "type": "uint256"
        }
      ],
      "name": "disableSingle",
      "outputs": [],
      "stateMutability": "nonpayable",
      "type": "function"
    },
    {
      "inputs": [
        {
          "internalType": "uint256",
          "name": "_tokenID",
          "type": "uint256"
        }
      ],
      "name": "enableSingle",
      "outputs": [],
      "stateMutability": "nonpayable",
      "type": "function"
    },
    {
      "inputs": [],
      "name": "disableCollection",
      "outputs": [],
      "stateMutability": "nonpayable",
      "type": "function"
    },
    {
      "inputs": [],
      "name": "enableCollection",
      "outputs": [],
      "stateMutability": "nonpayable",
      "type": "function"
    },
    {
      "inputs": [
        {
          "internalType": "uint256",
          "name": "_id",
          "type": "uint256"
        }
      ],
      "name": "uri",
      "outputs": [
        {
          "internalType": "string",
          "name": "",
          "type": "string"
        }
      ],
      "stateMutability": "view",
      "type": "function",
      "constant": true
    },
    {
      "inputs": [
        {
          "internalType": "uint256",
          "name": "_tokenId",
          "type": "uint256"
        },
        {
          "internalType": "string",
          "name": "_uri",
          "type": "string"
        }
      ],
      "name": "setURI",
      "outputs": [],
      "stateMutability": "nonpayable",
      "type": "function"
    },
    {
      "inputs": [
        {
          "internalType": "uint256[]",
          "name": "ids",
          "type": "uint256[]"
        },
        {
          "internalType": "string[]",
          "name": "uris",
          "type": "string[]"
        }
      ],
      "name": "setBatchURI",
      "outputs": [],
      "stateMutability": "nonpayable",
      "type": "function"
    },
    {
      "inputs": [
        {
          "internalType": "address",
          "name": "account",
          "type": "address"
        },
        {
          "internalType": "uint256",
          "name": "amount",
          "type": "uint256"
        },
        {
          "internalType": "string",
          "name": "_uri",
          "type": "string"
        },
        {
          "internalType": "bytes",
          "name": "data",
          "type": "bytes"
        }
      ],
      "name": "mint",
      "outputs": [
        {
          "internalType": "uint256",
          "name": "",
          "type": "uint256"
        }
      ],
      "stateMutability": "nonpayable",
      "type": "function"
    },
    {
      "inputs": [
        {
          "internalType": "address",
          "name": "to",
          "type": "address"
        },
        {
          "internalType": "uint256",
          "name": "tokenCount",
          "type": "uint256"
        },
        {
          "internalType": "string[]",
          "name": "uris",
          "type": "string[]"
        },
        {
          "internalType": "uint256[]",
          "name": "values",
          "type": "uint256[]"
        },
        {
          "internalType": "bytes",
          "name": "data",
          "type": "bytes"
        }
      ],
      "name": "mintBatch",
      "outputs": [],
      "stateMutability": "nonpayable",
      "type": "function"
    },
    {
      "inputs": [
        {
          "internalType": "address",
          "name": "from",
          "type": "address"
        },
        {
          "internalType": "address",
          "name": "to",
          "type": "address"
        },
        {
          "internalType": "uint256",
          "name": "id",
          "type": "uint256"
        },
        {
          "internalType": "uint256",
          "name": "amount",
          "type": "uint256"
        },
        {
          "internalType": "bytes",
          "name": "data",
          "type": "bytes"
        }
      ],
      "name": "safeTransferFrom",
      "outputs": [],
      "stateMutability": "nonpayable",
      "type": "function"
    },
    {
      "inputs": [
        {
          "internalType": "address",
          "name": "from",
          "type": "address"
        },
        {
          "internalType": "address",
          "name": "to",
          "type": "address"
        },
        {
          "internalType": "uint256[]",
          "name": "ids",
          "type": "uint256[]"
        },
        {
          "internalType": "uint256[]",
          "name": "amounts",
          "type": "uint256[]"
        },
        {
          "internalType": "bytes",
          "name": "data",
          "type": "bytes"
        }
      ],
      "name": "safeBatchTransferFrom",
      "outputs": [],
      "stateMutability": "nonpayable",
      "type": "function"
    },
    {
      "inputs": [
        {
          "internalType": "address",
          "name": "owner",
          "type": "address"
        },
        {
          "internalType": "uint256",
          "name": "id",
          "type": "uint256"
        },
        {
          "internalType": "uint256",
          "name": "value",
          "type": "uint256"
        }
      ],
      "name": "burn",
      "outputs": [],
      "stateMutability": "nonpayable",
      "type": "function"
    },
    {
      "inputs": [
        {
          "internalType": "address",
          "name": "owner",
          "type": "address"
        },
        {
          "internalType": "uint256[]",
          "name": "ids",
          "type": "uint256[]"
        },
        {
          "internalType": "uint256[]",
          "name": "values",
          "type": "uint256[]"
        }
      ],
      "name": "burnBatch",
      "outputs": [],
      "stateMutability": "nonpayable",
      "type": "function"
    },
    {
      "inputs": [
        {
          "internalType": "address",
          "name": "account",
          "type": "address"
        }
      ],
      "name": "addMinter",
      "outputs": [],
      "stateMutability": "nonpayable",
      "type": "function"
    },
    {
      "inputs": [
        {
          "internalType": "address",
          "name": "account",
          "type": "address"
        }
      ],
      "name": "removeMinter",
      "outputs": [],
      "stateMutability": "nonpayable",
      "type": "function"
    }
  ],
  "bytecode": "0x60806040523480156200001157600080fd5b506040516200328d3803806200328d83398101604081905262000034916200040b565b81620000498164010000000062000127810204565b50620000706200006164010000000062000140810204565b64010000000062000144810204565b6003805460a060020a60ff0219169055835162000095906004906020870190620002ae565b508251620000ab906005906020860190620002ae565b508151620000c1906006906020850190620002ae565b50600160086000620000db64010000000062000140810204565b600160a060020a031681526020810191909152604001600020805460ff191691151591909117905580156200011d576200011d64010000000062000196810204565b505050506200053a565b80516200013c906002906020840190620002ae565b5050565b3390565b60038054600160a060020a03838116600160a060020a0319831681179093556040519116919082907f8be0079c531659141344cd1fd0a4f28419497f9722a3daafe3b4186f6b6457e090600090a35050565b620001a96401000000006200028d810204565b1562000215576040517f08c379a000000000000000000000000000000000000000000000000000000000815260206004820152601060248201527f5061757361626c653a2070617573656400000000000000000000000000000000604482015260640160405180910390fd5b6003805460a060020a60ff021916740100000000000000000000000000000000000000001790557f62e78cea01bee320cd4e420270b5ea74000d11b0c9f74754ebdbfc544b05a2586200027064010000000062000140810204565b604051600160a060020a03909116815260200160405180910390a1565b60035474010000000000000000000000000000000000000000900460ff1690565b828054620002bc90620004b5565b90600052602060002090601f016020900481019282620002e057600085556200032b565b82601f10620002fb57805160ff19168380011785556200032b565b828001600101855582156200032b579182015b828111156200032b5782518255916020019190600101906200030e565b50620003399291506200033d565b5090565b5b808211156200033957600081556001016200033e565b600082601f8301126200036657600080fd5b81516001604060020a03808211156200038357620003836200050b565b604051601f8301601f19908116603f01168101908282118183101715620003ae57620003ae6200050b565b81604052838152602092508683858801011115620003cb57600080fd5b600091505b83821015620003ef5785820183015181830184015290820190620003d0565b83821115620004015760008385830101525b9695505050505050565b600080600080608085870312156200042257600080fd5b84516001604060020a03808211156200043a57600080fd5b620004488883890162000354565b955060208701519150808211156200045f57600080fd5b6200046d8883890162000354565b945060408701519150808211156200048457600080fd5b50620004938782880162000354565b92505060608501518015158114620004aa57600080fd5b939692955090935050565b600281046001821680620004ca57607f821691505b6020821081141562000505577f4e487b7100000000000000000000000000000000000000000000000000000000600052602260045260246000fd5b50919050565b7f4e487b7100000000000000000000000000000000000000000000000000000000600052604160045260246000fd5b612d43806200054a6000396000f3fe608060405234801561001057600080fd5b5060043610610201576000357c010000000000000000000000000000000000000000000000000000000090048063715018a61161012c578063d2b04fd6116100bf578063f242432a1161008e578063f242432a1461044a578063f2fde38b1461045d578063f5298aca14610470578063f945cd731461048357600080fd5b8063d2b04fd6146103e0578063e5c57f26146103f3578063e985e9c5146103fb578063eefdca531461043757600080fd5b8063983b2d56116100fb578063983b2d561461038e578063a22cb465146103a1578063ad25ca29146103b4578063bb62115e146103d757600080fd5b8063715018a614610350578063862440e2146103585780638da5cb5b1461036b57806395d89b411461038657600080fd5b80632eb2c2d6116101a45780635c975abb116101735780635c975abb1461031b5780636b20c4541461032d5780636c0360eb146103405780636d1d50531461034857600080fd5b80632eb2c2d6146102c25780633092afd5146102d55780634e1273f4146102e857806355f804b31461030857600080fd5b80630e89341c116101e05780630e89341c1461026457806312532a96146102775780631bf66f371461028c5780631f3b4c901461029f57600080fd5b8062fdd58e1461020657806301ffc9a71461022c57806306fdde031461024f575b600080fd5b61021961021436600461228b565b610496565b6040519081526020015b60405180910390f35b61023f61023a3660046124e0565b610542565b6040519015158152602001610223565b6102576105df565b60405161022391906127c0565b610257610272366004612557565b61066d565b61028a610285366004612557565b6106e8565b005b61028a61029a366004612486565b610730565b61023f6102ad366004612077565b60086020526000908152604090205460ff1681565b61028a6102d03660046120cc565b6107c1565b61028a6102e3366004612077565b6108cb565b6102fb6102f63660046123b7565b610919565b6040516102239190612788565b61028a61031636600461251a565b610a5a565b60035460a060020a900460ff1661023f565b61028a61033b3660046121db565b610a9e565b610257610ad6565b61028a610ae3565b61028a610b1a565b61028a610366366004612570565b610b51565b600354604051600160a060020a039091168152602001610223565b610257610ba2565b61028a61039c366004612077565b610baf565b61028a6103af36600461224f565b610c00565b61023f6103c2366004612557565b60096020526000908152604090205460ff1681565b610219600a5481565b6102196103ee366004612306565b610cee565b61028a610d53565b61023f610409366004612099565b600160a060020a03918216600090815260016020908152604080832093909416825291909152205460ff1690565b61028a610445366004612557565b610d88565b61028a610458366004612176565b610dcd565b61028a61046b366004612077565b610e8f565b61028a61047e366004612384565b610f47565b61028a6104913660046122b5565b610f7f565b6000600160a060020a03831661051c5760405160e560020a62461bcd02815260206004820152602b60248201527f455243313135353a2062616c616e636520717565727920666f7220746865207a60448201527f65726f206164647265737300000000000000000000000000000000000000000060648201526084015b60405180910390fd5b50600090815260208181526040808320600160a060020a03949094168352929052205490565b6000600160e060020a031982167fd9b67a260000000000000000000000000000000000000000000000000000000014806105a55750600160e060020a031982167f0e89341c00000000000000000000000000000000000000000000000000000000145b806105d957507f01ffc9a700000000000000000000000000000000000000000000000000000000600160e060020a03198316145b92915050565b600480546105ec90612b63565b80601f016020809104026020016040519081016040528092919081815260200182805461061890612b63565b80156106655780601f1061063a57610100808354040283529160200191610665565b820191906000526020600020905b81548152906001019060200180831161064857829003601f168201915b505050505081565b60008181526007602052604081208054606092919061068b90612b63565b905011156106cf576006600760008481526020019081526020016000206040516020016106b99291906126d2565b6040516020818303038152906040529050919050565b505060408051602081019091526000815290565b919050565b600354600160a060020a031633146107155760405160e560020a62461bcd02815260040161051390612a38565b6000908152600960205260409020805460ff19166001179055565b3360009081526008602052604090205460ff166107625760405160e560020a62461bcd02815260040161051390612830565b60005b82518110156107bc576107aa83828151811061078357610783612c02565b602002602001015183838151811061079d5761079d612c02565b6020026020010151610b51565b806107b481612bce565b915050610765565b505050565b60035460a060020a900460ff16156107ee5760405160e560020a62461bcd028152600401610513906128ea565b60005b83518110156108b6576009600085838151811061081057610810612c02565b60209081029190910181015182528101919091526040016000205460ff16156108a45760405160e560020a62461bcd02815260206004820152602e60248201527f455243313135353a205472616e736665722064697361626c656420666f72206f60448201527f6e65206f6620746865204e4654730000000000000000000000000000000000006064820152608401610513565b806108ae81612bce565b9150506107f1565b506108c485858585856110db565b5050505050565b600354600160a060020a031633146108f85760405160e560020a62461bcd02815260040161051390612a38565b600160a060020a03166000908152600860205260409020805460ff19169055565b606081518351146109955760405160e560020a62461bcd02815260206004820152602960248201527f455243313135353a206163636f756e747320616e6420696473206c656e67746860448201527f206d69736d6174636800000000000000000000000000000000000000000000006064820152608401610513565b6000835167ffffffffffffffff8111156109b1576109b1612c1b565b6040519080825280602002602001820160405280156109da578160200160208202803683370190505b50905060005b8451811015610a5257610a258582815181106109fe576109fe612c02565b6020026020010151858381518110610a1857610a18612c02565b6020026020010151610496565b828281518110610a3757610a37612c02565b6020908102919091010152610a4b81612bce565b90506109e0565b509392505050565b600354600160a060020a03163314610a875760405160e560020a62461bcd02815260040161051390612a38565b8051610a9a906006906020840190611e44565b5050565b600354600160a060020a03163314610acb5760405160e560020a62461bcd02815260040161051390612a38565b6107bc838383611179565b600680546105ec90612b63565b600354600160a060020a03163314610b105760405160e560020a62461bcd02815260040161051390612a38565b610b186112fe565b565b600354600160a060020a03163314610b475760405160e560020a62461bcd02815260040161051390612a38565b610b186000611394565b3360009081526008602052604090205460ff16610b835760405160e560020a62461bcd02815260040161051390612830565b600082815260076020908152604090912082516107bc92840190611e44565b600580546105ec90612b63565b600354600160a060020a03163314610bdc5760405160e560020a62461bcd02815260040161051390612a38565b600160a060020a03166000908152600860205260409020805460ff19166001179055565b33600160a060020a0383161415610c825760405160e560020a62461bcd02815260206004820152602960248201527f455243313135353a2073657474696e6720617070726f76616c2073746174757360448201527f20666f722073656c6600000000000000000000000000000000000000000000006064820152608401610513565b336000818152600160209081526040808320600160a060020a03871680855290835292819020805460ff191686151590811790915590519081529192917f17307eab39ab6107e8899845ad3d59bd9653f200f220920489ca2b5937696c31910160405180910390a35050565b3360009081526008602052604081205460ff16610d205760405160e560020a62461bcd02815260040161051390612830565b6000610d2a6113f3565b9050610d3886828786611409565b610d428185610b51565b610d4a6114dc565b95945050505050565b600354600160a060020a03163314610d805760405160e560020a62461bcd02815260040161051390612a38565b610b186114f3565b600354600160a060020a03163314610db55760405160e560020a62461bcd02815260040161051390612a38565b6000908152600960205260409020805460ff19169055565b60035460a060020a900460ff1615610dfa5760405160e560020a62461bcd028152600401610513906128ea565b60008381526009602052604090205460ff1615610e825760405160e560020a62461bcd02815260206004820152602760248201527f455243313135353a205472616e736665722064697361626c656420666f72207460448201527f686973204e4654000000000000000000000000000000000000000000000000006064820152608401610513565b6108c48585858585611594565b600354600160a060020a03163314610ebc5760405160e560020a62461bcd02815260040161051390612a38565b600160a060020a038116610f3b5760405160e560020a62461bcd02815260206004820152602660248201527f4f776e61626c653a206e6577206f776e657220697320746865207a65726f206160448201527f64647265737300000000000000000000000000000000000000000000000000006064820152608401610513565b610f4481611394565b50565b600354600160a060020a03163314610f745760405160e560020a62461bcd02815260040161051390612a38565b6107bc838383611632565b3360009081526008602052604090205460ff16610fb15760405160e560020a62461bcd02815260040161051390612830565b8383511461102a5760405160e560020a62461bcd02815260206004820152602e60248201527f455243313135353a2075726973206c656e677468206d69736d6174636820776960448201527f746820746f6b656e20636f756e740000000000000000000000000000000000006064820152608401610513565b60008467ffffffffffffffff81111561104557611045612c1b565b60405190808252806020026020018201604052801561106e578160200160208202803683370190505b50905060005b858110156110bc576110846113f3565b82828151811061109657611096612c02565b6020026020010181815250506110aa6114dc565b806110b481612bce565b915050611074565b506110c98682858561173a565b6110d38185610730565b505050505050565b600160a060020a0385163314806110f757506110f78533610409565b61116c5760405160e560020a62461bcd02815260206004820152603260248201527f455243313135353a207472616e736665722063616c6c6572206973206e6f742060448201527f6f776e6572206e6f7220617070726f76656400000000000000000000000000006064820152608401610513565b6108c4858585858561188b565b600160a060020a0383166111a25760405160e560020a62461bcd0281526004016105139061297e565b80518251146111c65760405160e560020a62461bcd02815260040161051390612a6d565b604080516020810190915260009081905233905b835181101561129f5760008482815181106111f7576111f7612c02565b60200260200101519050600084838151811061121557611215612c02565b60209081029190910181015160008481528083526040808220600160a060020a038c1683529093529190912054909150818110156112685760405160e560020a62461bcd0281526004016105139061288d565b600092835260208381526040808520600160a060020a038b168652909152909220910390558061129781612bce565b9150506111da565b506000600160a060020a031684600160a060020a031682600160a060020a03167f4a39dc06d4c0dbc64b70af90fd698a233a518aa5d07e595d983b8c0526c8f7fb86866040516112f092919061279b565b60405180910390a450505050565b60035460a060020a900460ff161561132b5760405160e560020a62461bcd028152600401610513906128ea565b6003805474ff0000000000000000000000000000000000000000191660a060020a1790557f62e78cea01bee320cd4e420270b5ea74000d11b0c9f74754ebdbfc544b05a2586113773390565b604051600160a060020a03909116815260200160405180910390a1565b60038054600160a060020a0383811673ffffffffffffffffffffffffffffffffffffffff19831681179093556040519116919082907f8be0079c531659141344cd1fd0a4f28419497f9722a3daafe3b4186f6b6457e090600090a35050565b6000600a5460016114049190612b4b565b905090565b600160a060020a0384166114325760405160e560020a62461bcd02815260040161051390612aca565b3361144c8160008761144388611a28565b6108c488611a28565b600084815260208181526040808320600160a060020a03891684529091528120805485929061147c908490612b4b565b90915550506040805185815260208101859052600160a060020a0380881692600092918516917fc3d58168c5ae7397731d063d5bbf3d657854427343f4c083240f7aacaa2d0f62910160405180910390a46108c481600087878787611a73565b600a80549060006114ec83612bce565b9190505550565b60035460a060020a900460ff1661154f5760405160e560020a62461bcd02815260206004820152601460248201527f5061757361626c653a206e6f74207061757365640000000000000000000000006044820152606401610513565b6003805474ff0000000000000000000000000000000000000000191690557f5db9ee0a495bf2e6ff9c91a7834c1ba4fdd244a5e8aa4e537bd38aeae4b073aa33611377565b600160a060020a0385163314806115b057506115b08533610409565b6116255760405160e560020a62461bcd02815260206004820152602960248201527f455243313135353a2063616c6c6572206973206e6f74206f776e6572206e6f7260448201527f20617070726f76656400000000000000000000000000000000000000000000006064820152608401610513565b6108c48585858585611c2b565b600160a060020a03831661165b5760405160e560020a62461bcd0281526004016105139061297e565b3361168b8185600061166c87611a28565b61167587611a28565b5050604080516020810190915260009052505050565b600083815260208181526040808320600160a060020a0388168452909152902054828110156116cf5760405160e560020a62461bcd0281526004016105139061288d565b600084815260208181526040808320600160a060020a03898116808652918452828520888703905582518981529384018890529092908616917fc3d58168c5ae7397731d063d5bbf3d657854427343f4c083240f7aacaa2d0f62910160405180910390a45050505050565b600160a060020a0384166117635760405160e560020a62461bcd02815260040161051390612aca565b81518351146117875760405160e560020a62461bcd02815260040161051390612a6d565b3360005b8451811015611823578381815181106117a6576117a6612c02565b60200260200101516000808784815181106117c3576117c3612c02565b60200260200101518152602001908152602001600020600088600160a060020a0316600160a060020a03168152602001908152602001600020600082825461180b9190612b4b565b9091555081905061181b81612bce565b91505061178b565b5084600160a060020a03166000600160a060020a031682600160a060020a03167f4a39dc06d4c0dbc64b70af90fd698a233a518aa5d07e595d983b8c0526c8f7fb878760405161187492919061279b565b60405180910390a46108c481600087878787611d45565b81518351146118af5760405160e560020a62461bcd02815260040161051390612a6d565b600160a060020a0384166118d85760405160e560020a62461bcd02815260040161051390612921565b3360005b84518110156119c25760008582815181106118f9576118f9612c02565b60200260200101519050600085838151811061191757611917612c02565b60209081029190910181015160008481528083526040808220600160a060020a038e16835290935291909120549091508181101561196a5760405160e560020a62461bcd028152600401610513906129db565b600083815260208181526040808320600160a060020a038e8116855292528083208585039055908b168252812080548492906119a7908490612b4b565b92505081905550505050806119bb90612bce565b90506118dc565b5084600160a060020a031686600160a060020a031682600160a060020a03167f4a39dc06d4c0dbc64b70af90fd698a233a518aa5d07e595d983b8c0526c8f7fb8787604051611a1292919061279b565b60405180910390a46110d3818787878787611d45565b60408051600180825281830190925260609160009190602080830190803683370190505090508281600081518110611a6257611a62612c02565b602090810291909101015292915050565b600160a060020a0384163b156110d3576040517ff23a6e61000000000000000000000000000000000000000000000000000000008152600160a060020a0385169063f23a6e6190611ad09089908990889088908890600401612745565b602060405180830381600087803b158015611aea57600080fd5b505af1925050508015611b1a575060408051601f3d908101601f19168201909252611b17918101906124fd565b60015b611bd657611b26612c34565b806308c379a01415611b635750611b3b612c6d565b80611b465750611b65565b8060405160e560020a62461bcd02815260040161051391906127c0565b505b60405160e560020a62461bcd02815260206004820152603460248201527f455243313135353a207472616e7366657220746f206e6f6e204552433131353560448201527f526563656976657220696d706c656d656e7465720000000000000000000000006064820152608401610513565b600160e060020a031981167ff23a6e610000000000000000000000000000000000000000000000000000000014611c225760405160e560020a62461bcd028152600401610513906127d3565b50505050505050565b600160a060020a038416611c545760405160e560020a62461bcd02815260040161051390612921565b33611c6481878761144388611a28565b600084815260208181526040808320600160a060020a038a16845290915290205483811015611ca85760405160e560020a62461bcd028152600401610513906129db565b600085815260208181526040808320600160a060020a038b8116855292528083208785039055908816825281208054869290611ce5908490612b4b565b90915550506040805186815260208101869052600160a060020a03808916928a821692918616917fc3d58168c5ae7397731d063d5bbf3d657854427343f4c083240f7aacaa2d0f62910160405180910390a4611c22828888888888611a73565b600160a060020a0384163b156110d3576040517fbc197c81000000000000000000000000000000000000000000000000000000008152600160a060020a0385169063bc197c8190611da290899089908890889088906004016126e7565b602060405180830381600087803b158015611dbc57600080fd5b505af1925050508015611dec575060408051601f3d908101601f19168201909252611de9918101906124fd565b60015b611df857611b26612c34565b600160e060020a031981167fbc197c810000000000000000000000000000000000000000000000000000000014611c225760405160e560020a62461bcd028152600401610513906127d3565b828054611e5090612b63565b90600052602060002090601f016020900481019282611e725760008555611eb8565b82601f10611e8b57805160ff1916838001178555611eb8565b82800160010185558215611eb8579182015b82811115611eb8578251825591602001919060010190611e9d565b50611ec4929150611ec8565b5090565b5b80821115611ec45760008155600101611ec9565b8035600160a060020a03811681146106e357600080fd5b600082601f830112611f0557600080fd5b81356020611f1282612b27565b604051611f1f8282612ba1565b838152828101915085830183850287018401881015611f3d57600080fd5b6000805b86811015611f8057823567ffffffffffffffff811115611f5f578283fd5b611f6d8b88838d0101612003565b8652509385019391850191600101611f41565b509198975050505050505050565b600082601f830112611f9f57600080fd5b81356020611fac82612b27565b604051611fb98282612ba1565b838152828101915085830183850287018401881015611fd757600080fd5b60005b85811015611ff657813584529284019290840190600101611fda565b5090979650505050505050565b600082601f83011261201457600080fd5b813567ffffffffffffffff81111561202e5761202e612c1b565b604051612045601f8301601f191660200182612ba1565b81815284602083860101111561205a57600080fd5b816020850160208301376000918101602001919091529392505050565b60006020828403121561208957600080fd5b61209282611edd565b9392505050565b600080604083850312156120ac57600080fd5b6120b583611edd565b91506120c360208401611edd565b90509250929050565b600080600080600060a086880312156120e457600080fd5b6120ed86611edd565b94506120fb60208701611edd565b9350604086013567ffffffffffffffff8082111561211857600080fd5b61212489838a01611f8e565b9450606088013591508082111561213a57600080fd5b61214689838a01611f8e565b9350608088013591508082111561215c57600080fd5b5061216988828901612003565b9150509295509295909350565b600080600080600060a0868803121561218e57600080fd5b61219786611edd565b94506121a560208701611edd565b93506040860135925060608601359150608086013567ffffffffffffffff8111156121cf57600080fd5b61216988828901612003565b6000806000606084860312156121f057600080fd5b6121f984611edd565b9250602084013567ffffffffffffffff8082111561221657600080fd5b61222287838801611f8e565b9350604086013591508082111561223857600080fd5b5061224586828701611f8e565b9150509250925092565b6000806040838503121561226257600080fd5b61226b83611edd565b91506020830135801515811461228057600080fd5b809150509250929050565b6000806040838503121561229e57600080fd5b6122a783611edd565b946020939093013593505050565b600080600080600060a086880312156122cd57600080fd5b6122d686611edd565b945060208601359350604086013567ffffffffffffffff808211156122fa57600080fd5b61212489838a01611ef4565b6000806000806080858703121561231c57600080fd5b61232585611edd565b935060208501359250604085013567ffffffffffffffff8082111561234957600080fd5b61235588838901612003565b9350606087013591508082111561236b57600080fd5b5061237887828801612003565b91505092959194509250565b60008060006060848603121561239957600080fd5b6123a284611edd565b95602085013595506040909401359392505050565b600080604083850312156123ca57600080fd5b823567ffffffffffffffff808211156123e257600080fd5b818501915085601f8301126123f657600080fd5b8135602061240382612b27565b6040516124108282612ba1565b8381528281019150858301838502870184018b101561242e57600080fd5b600096505b848710156124585761244481611edd565b835260019690960195918301918301612433565b509650508601359250508082111561246f57600080fd5b5061247c85828601611f8e565b9150509250929050565b6000806040838503121561249957600080fd5b823567ffffffffffffffff808211156124b157600080fd5b6124bd86838701611f8e565b935060208501359150808211156124d357600080fd5b5061247c85828601611ef4565b6000602082840312156124f257600080fd5b813561209281612cf7565b60006020828403121561250f57600080fd5b815161209281612cf7565b60006020828403121561252c57600080fd5b813567ffffffffffffffff81111561254357600080fd5b61254f84828501612003565b949350505050565b60006020828403121561256957600080fd5b5035919050565b6000806040838503121561258357600080fd5b82359150602083013567ffffffffffffffff8111156125a157600080fd5b61247c85828601612003565b600081518084526020808501945080840160005b838110156125dd578151875295820195908201906001016125c1565b509495945050505050565b6000815180845260005b8181101561260e576020818501810151868301820152016125f2565b81811115612620576000602083870101525b50601f01601f19169290920160200192915050565b80546000906002810460018083168061264f57607f831692505b60208084108214156126745760e060020a634e487b7102600052602260045260246000fd5b8180156126885760018114612699576126c6565b60ff198616895284890196506126c6565b60008881526020902060005b868110156126be5781548b8201529085019083016126a5565b505084890196505b50505050505092915050565b600061254f6126e18386612635565b84612635565b6000600160a060020a03808816835280871660208401525060a0604083015261271360a08301866125ad565b828103606084015261272581866125ad565b9050828103608084015261273981856125e8565b98975050505050505050565b6000600160a060020a03808816835280871660208401525084604083015283606083015260a0608083015261277d60a08301846125e8565b979650505050505050565b60208152600061209260208301846125ad565b6040815260006127ae60408301856125ad565b8281036020840152610d4a81856125ad565b60208152600061209260208301846125e8565b60208082526028908201527f455243313135353a204552433131353552656365697665722072656a6563746560408201527f6420746f6b656e73000000000000000000000000000000000000000000000000606082015260800190565b6020808252602c908201527f455243313135353a204f6e6c79206d696e746572732063616e2063616c6c207460408201527f6869732066756e6374696f6e0000000000000000000000000000000000000000606082015260800190565b60208082526024908201527f455243313135353a206275726e20616d6f756e7420657863656564732062616c60408201527f616e636500000000000000000000000000000000000000000000000000000000606082015260800190565b60208082526010908201527f5061757361626c653a2070617573656400000000000000000000000000000000604082015260600190565b60208082526025908201527f455243313135353a207472616e7366657220746f20746865207a65726f20616460408201527f6472657373000000000000000000000000000000000000000000000000000000606082015260800190565b60208082526023908201527f455243313135353a206275726e2066726f6d20746865207a65726f206164647260408201527f6573730000000000000000000000000000000000000000000000000000000000606082015260800190565b6020808252602a908201527f455243313135353a20696e73756666696369656e742062616c616e636520666f60408201527f72207472616e7366657200000000000000000000000000000000000000000000606082015260800190565b6020808252818101527f4f776e61626c653a2063616c6c6572206973206e6f7420746865206f776e6572604082015260600190565b60208082526028908201527f455243313135353a2069647320616e6420616d6f756e7473206c656e6774682060408201527f6d69736d61746368000000000000000000000000000000000000000000000000606082015260800190565b60208082526021908201527f455243313135353a206d696e7420746f20746865207a65726f2061646472657360408201527f7300000000000000000000000000000000000000000000000000000000000000606082015260800190565b600067ffffffffffffffff821115612b4157612b41612c1b565b5060209081020190565b60008219821115612b5e57612b5e612be9565b500190565b600281046001821680612b7757607f821691505b60208210811415612b9b5760e060020a634e487b7102600052602260045260246000fd5b50919050565b601f8201601f1916810167ffffffffffffffff81118282101715612bc757612bc7612c1b565b6040525050565b6000600019821415612be257612be2612be9565b5060010190565b60e060020a634e487b7102600052601160045260246000fd5b60e060020a634e487b7102600052603260045260246000fd5b60e060020a634e487b7102600052604160045260246000fd5b600060033d1115612c6a5760046000803e7c01000000000000000000000000000000000000000000000000000000006000510490505b90565b600060443d1015612c7b5790565b6040516003193d81016004833e81513d67ffffffffffffffff8160248401118184111715612cab57505050505090565b8285019150815181811115612cc35750505050505090565b843d8701016020828501011115612cdd5750505050505090565b612cec60208286010187612ba1565b509095945050505050565b600160e060020a031981168114610f4457600080fdfea26469706673582212209901334b04e72b8ad7705288e70e923d7255b90544f785a560d3c76f26f0f9dd64736f6c63430008070033",
  "immutableReferences": {},
  "source": "//SPDX-License-Identifier: UNLICENSED\npragma solidity ^0.8.7;\n\nimport \"@openzeppelin/contracts/utils/Context.sol\";\nimport \"@openzeppelin/contracts/security/Pausable.sol\";\nimport \"@openzeppelin/contracts/token/ERC1155/ERC1155.sol\";\nimport \"@openzeppelin/contracts/access/Ownable.sol\";\n\ncontract AWST_NSM is ERC1155, Ownable, Pausable {\n\n    string public name;\n    string public symbol;\n    string public baseURI;\n    \n    mapping(uint256 => string) private _tokenURIs;\n    mapping(address => bool) public isAllowedMinter;\n    mapping(uint256 => bool) public isDisabled;\n\n    uint256 public currentTokenID;\n\n    modifier onlyMinter() {\n        require(\n            isAllowedMinter[_msgSender()],\n            \"ERC1155: Only minters can call this function\"\n        );\n        _;\n    }\n\n    constructor(\n        string memory _name,\n        string memory _symbol,\n        string memory _baseURI,\n        bool _isPaused\n    ) ERC1155(_baseURI) {\n        name = _name;\n        symbol = _symbol;\n        baseURI = _baseURI;\n        isAllowedMinter[_msgSender()] = true;\n\n        if(_isPaused) {\n            _pause();\n        }\n    }\n\n    /**\n     * @dev used for setting the base uri of the collection\n     */\n    function setBaseURI(string memory _baseURI) public onlyOwner {\n        baseURI = _baseURI;\n    }\n\n    /**\n     * @dev disable the transfer of a single token\n     */\n    function disableSingle(uint256 _tokenID) public onlyOwner {\n        isDisabled[_tokenID] = true;\n    }\n\n    /**\n     * @dev enable the transfer of a single token\n     */\n    function enableSingle(uint256 _tokenID) public onlyOwner {\n        isDisabled[_tokenID] = false;\n    }\n\n    /**\n     * @dev disable the transfer of all tokens\n     */\n    function disableCollection() public onlyOwner {\n        _pause();\n    }\n\n    /**\n     * @dev enable the transfer of all tokens\n     */\n    function enableCollection() public onlyOwner {\n        _unpause();\n    }\n\n    function uri(uint256 _id) public view override returns (string memory) {\n        if (bytes(_tokenURIs[_id]).length > 0) {\n            return string(abi.encodePacked(baseURI, _tokenURIs[_id]));\n        } else {\n            return \"\";\n        }\n    }\n\n    function setURI(uint256 _tokenId, string memory _uri) public onlyMinter {\n        _tokenURIs[_tokenId] = _uri;\n    }\n\n    function setBatchURI(uint256[] memory ids, string[] memory uris)\n        public\n        onlyMinter\n    {\n        for (uint256 i = 0; i < ids.length; i++) {\n            setURI(ids[i], uris[i]);\n        }\n    }\n\n    function mint(\n        address account,\n        uint256 amount,\n        string memory _uri,\n        bytes memory data\n    ) public onlyMinter returns (uint256) {\n        uint256 tokenId = _getNextTokenID();\n        _mint(account, tokenId, amount, data);\n        setURI(tokenId, _uri);\n        _incrementTokenId();\n        return tokenId;\n    }\n\n    function mintBatch(\n        address to,\n        uint256 tokenCount,\n        string[] memory uris,\n        uint256[] memory values,\n        bytes memory data\n    ) public onlyMinter {\n        require(uris.length == tokenCount, \"ERC1155: uris length mismatch with token count\");\n        uint256[] memory ids = new uint256[](tokenCount);\n        for (uint256 i = 0; i < tokenCount; i++) {\n            ids[i] = _getNextTokenID();\n            _incrementTokenId();\n        }\n        _mintBatch(to, ids, values, data);\n        setBatchURI(ids, uris);\n    }\n\n    function safeTransferFrom(\n        address from,\n        address to,\n        uint256 id,\n        uint256 amount,\n        bytes memory data\n    ) public override whenNotPaused {\n        require(!isDisabled[id], \"ERC1155: Transfer disabled for this NFT\");\n        super.safeTransferFrom(from, to, id, amount, data);\n    }\n\n    function safeBatchTransferFrom(\n        address from,\n        address to,\n        uint256[] memory ids,\n        uint256[] memory amounts,\n        bytes memory data\n    ) public override whenNotPaused {\n        \n        for (uint256 i = 0; i < ids.length; i++) {\n            require(\n                !isDisabled[ids[i]],\n                \"ERC1155: Transfer disabled for one of the NFTs\"\n            );\n        }\n        super.safeBatchTransferFrom(from, to, ids, amounts, data);\n    }\n\n    function burn(\n        address owner,\n        uint256 id,\n        uint256 value\n    ) public onlyOwner {\n        _burn(owner, id, value);\n    }\n\n    function burnBatch(\n        address owner,\n        uint256[] memory ids,\n        uint256[] memory values\n    ) public onlyOwner {\n        _burnBatch(owner, ids, values);\n    }\n\n    function addMinter(address account) public onlyOwner {\n        isAllowedMinter[account] = true;\n    }\n\n    function removeMinter(address account) public onlyOwner {\n        isAllowedMinter[account] = false;\n    }\n\n    function _getNextTokenID() private view returns (uint256) {\n        return currentTokenID + 1;\n    }\n\n    /**\n     * @dev increments the value of _currentTokenID\n     */\n    function _incrementTokenId() private {\n        currentTokenID++;\n    }\n\n}\n",
  "sourcePath": "/home/saeed/Desktop/ArtWallStreet/AWST/contracts/ERC1155.sol",
  "compiler": {
    "name": "solc",
    "version": "0.8.7+commit.e28d00a7.Emscripten.clang"
  },
  "schemaVersion": "3.3.4",
  "updatedAt": "2022-09-09T09:21:07.629Z",
  "networkType": "ethereum",
  "devdoc": {
    "kind": "dev",
    "methods": {
      "balanceOf(address,uint256)": {
        "details": "See {IERC1155-balanceOf}. Requirements: - `account` cannot be the zero address."
      },
      "balanceOfBatch(address[],uint256[])": {
        "details": "See {IERC1155-balanceOfBatch}. Requirements: - `accounts` and `ids` must have the same length."
      },
      "disableCollection()": {
        "details": "disable the transfer of all tokens"
      },
      "disableSingle(uint256)": {
        "details": "disable the transfer of a single token"
      },
      "enableCollection()": {
        "details": "enable the transfer of all tokens"
      },
      "enableSingle(uint256)": {
        "details": "enable the transfer of a single token"
      },
      "isApprovedForAll(address,address)": {
        "details": "See {IERC1155-isApprovedForAll}."
      },
      "owner()": {
        "details": "Returns the address of the current owner."
      },
      "paused()": {
        "details": "Returns true if the contract is paused, and false otherwise."
      },
      "renounceOwnership()": {
        "details": "Leaves the contract without owner. It will not be possible to call `onlyOwner` functions anymore. Can only be called by the current owner. NOTE: Renouncing ownership will leave the contract without an owner, thereby removing any functionality that is only available to the owner."
      },
      "safeBatchTransferFrom(address,address,uint256[],uint256[],bytes)": {
        "details": "See {IERC1155-safeBatchTransferFrom}."
      },
      "safeTransferFrom(address,address,uint256,uint256,bytes)": {
        "details": "See {IERC1155-safeTransferFrom}."
      },
      "setApprovalForAll(address,bool)": {
        "details": "See {IERC1155-setApprovalForAll}."
      },
      "setBaseURI(string)": {
        "details": "used for setting the base uri of the collection"
      },
      "supportsInterface(bytes4)": {
        "details": "See {IERC165-supportsInterface}."
      },
      "transferOwnership(address)": {
        "details": "Transfers ownership of the contract to a new account (`newOwner`). Can only be called by the current owner."
      }
    },
    "version": 1
  },
  "userdoc": {
    "kind": "user",
    "methods": {},
    "version": 1
  }
}