{
    "contractName": "AWST_NSM",
    "abi": [
        {
            "inputs": [
                {
                    "internalType": "string",
                    "name": "_name",
                    "type": "string"
                },
                {
                    "internalType": "string",
                    "name": "_symbol",
                    "type": "string"
                },
                {
                    "internalType": "string",
                    "name": "_baseURI",
                    "type": "string"
                },
                {
                    "internalType": "string",
                    "name": "_defaultURI",
                    "type": "string"
                },
                {
                    "internalType": "bool",
                    "name": "_isCollectionRevealed",
                    "type": "bool"
                },
                {
                    "internalType": "bool",
                    "name": "_isPaused",
                    "type": "bool"
                }
            ],
            "stateMutability": "nonpayable",
            "type": "constructor"
        },
        {
            "anonymous": false,
            "inputs": [
                {
                    "indexed": true,
                    "internalType": "address",
                    "name": "account",
                    "type": "address"
                },
                {
                    "indexed": true,
                    "internalType": "address",
                    "name": "operator",
                    "type": "address"
                },
                {
                    "indexed": false,
                    "internalType": "bool",
                    "name": "approved",
                    "type": "bool"
                }
            ],
            "name": "ApprovalForAll",
            "type": "event"
        },
        {
            "anonymous": false,
            "inputs": [
                {
                    "indexed": true,
                    "internalType": "address",
                    "name": "previousOwner",
                    "type": "address"
                },
                {
                    "indexed": true,
                    "internalType": "address",
                    "name": "newOwner",
                    "type": "address"
                }
            ],
            "name": "OwnershipTransferred",
            "type": "event"
        },
        {
            "anonymous": false,
            "inputs": [
                {
                    "indexed": false,
                    "internalType": "address",
                    "name": "account",
                    "type": "address"
                }
            ],
            "name": "Paused",
            "type": "event"
        },
        {
            "anonymous": false,
            "inputs": [
                {
                    "indexed": true,
                    "internalType": "address",
                    "name": "operator",
                    "type": "address"
                },
                {
                    "indexed": true,
                    "internalType": "address",
                    "name": "from",
                    "type": "address"
                },
                {
                    "indexed": true,
                    "internalType": "address",
                    "name": "to",
                    "type": "address"
                },
                {
                    "indexed": false,
                    "internalType": "uint256[]",
                    "name": "ids",
                    "type": "uint256[]"
                },
                {
                    "indexed": false,
                    "internalType": "uint256[]",
                    "name": "values",
                    "type": "uint256[]"
                }
            ],
            "name": "TransferBatch",
            "type": "event"
        },
        {
            "anonymous": false,
            "inputs": [
                {
                    "indexed": true,
                    "internalType": "address",
                    "name": "operator",
                    "type": "address"
                },
                {
                    "indexed": true,
                    "internalType": "address",
                    "name": "from",
                    "type": "address"
                },
                {
                    "indexed": true,
                    "internalType": "address",
                    "name": "to",
                    "type": "address"
                },
                {
                    "indexed": false,
                    "internalType": "uint256",
                    "name": "id",
                    "type": "uint256"
                },
                {
                    "indexed": false,
                    "internalType": "uint256",
                    "name": "value",
                    "type": "uint256"
                }
            ],
            "name": "TransferSingle",
            "type": "event"
        },
        {
            "anonymous": false,
            "inputs": [
                {
                    "indexed": false,
                    "internalType": "string",
                    "name": "value",
                    "type": "string"
                },
                {
                    "indexed": true,
                    "internalType": "uint256",
                    "name": "id",
                    "type": "uint256"
                }
            ],
            "name": "URI",
            "type": "event"
        },
        {
            "anonymous": false,
            "inputs": [
                {
                    "indexed": false,
                    "internalType": "address",
                    "name": "account",
                    "type": "address"
                }
            ],
            "name": "Unpaused",
            "type": "event"
        },
        {
            "inputs": [
                {
                    "internalType": "address",
                    "name": "account",
                    "type": "address"
                },
                {
                    "internalType": "uint256",
                    "name": "id",
                    "type": "uint256"
                }
            ],
            "name": "balanceOf",
            "outputs": [
                {
                    "internalType": "uint256",
                    "name": "",
                    "type": "uint256"
                }
            ],
            "stateMutability": "view",
            "type": "function"
        },
        {
            "inputs": [
                {
                    "internalType": "address[]",
                    "name": "accounts",
                    "type": "address[]"
                },
                {
                    "internalType": "uint256[]",
                    "name": "ids",
                    "type": "uint256[]"
                }
            ],
            "name": "balanceOfBatch",
            "outputs": [
                {
                    "internalType": "uint256[]",
                    "name": "",
                    "type": "uint256[]"
                }
            ],
            "stateMutability": "view",
            "type": "function"
        },
        {
            "inputs": [],
            "name": "baseURI",
            "outputs": [
                {
                    "internalType": "string",
                    "name": "",
                    "type": "string"
                }
            ],
            "stateMutability": "view",
            "type": "function"
        },
        {
            "inputs": [],
            "name": "currentTokenID",
            "outputs": [
                {
                    "internalType": "uint256",
                    "name": "",
                    "type": "uint256"
                }
            ],
            "stateMutability": "view",
            "type": "function"
        },
        {
            "inputs": [],
            "name": "defaultURI",
            "outputs": [
                {
                    "internalType": "string",
                    "name": "",
                    "type": "string"
                }
            ],
            "stateMutability": "view",
            "type": "function"
        },
        {
            "inputs": [
                {
                    "internalType": "address",
                    "name": "",
                    "type": "address"
                }
            ],
            "name": "isAllowedMinter",
            "outputs": [
                {
                    "internalType": "bool",
                    "name": "",
                    "type": "bool"
                }
            ],
            "stateMutability": "view",
            "type": "function"
        },
        {
            "inputs": [
                {
                    "internalType": "address",
                    "name": "account",
                    "type": "address"
                },
                {
                    "internalType": "address",
                    "name": "operator",
                    "type": "address"
                }
            ],
            "name": "isApprovedForAll",
            "outputs": [
                {
                    "internalType": "bool",
                    "name": "",
                    "type": "bool"
                }
            ],
            "stateMutability": "view",
            "type": "function"
        },
        {
            "inputs": [],
            "name": "isCollectionRevealed",
            "outputs": [
                {
                    "internalType": "bool",
                    "name": "",
                    "type": "bool"
                }
            ],
            "stateMutability": "view",
            "type": "function"
        },
        {
            "inputs": [
                {
                    "internalType": "uint256",
                    "name": "",
                    "type": "uint256"
                }
            ],
            "name": "isDisabled",
            "outputs": [
                {
                    "internalType": "bool",
                    "name": "",
                    "type": "bool"
                }
            ],
            "stateMutability": "view",
            "type": "function"
        },
        {
            "inputs": [
                {
                    "internalType": "uint256",
                    "name": "",
                    "type": "uint256"
                }
            ],
            "name": "isRevealed",
            "outputs": [
                {
                    "internalType": "bool",
                    "name": "",
                    "type": "bool"
                }
            ],
            "stateMutability": "view",
            "type": "function"
        },
        {
            "inputs": [],
            "name": "name",
            "outputs": [
                {
                    "internalType": "string",
                    "name": "",
                    "type": "string"
                }
            ],
            "stateMutability": "view",
            "type": "function"
        },
        {
            "inputs": [],
            "name": "owner",
            "outputs": [
                {
                    "internalType": "address",
                    "name": "",
                    "type": "address"
                }
            ],
            "stateMutability": "view",
            "type": "function"
        },
        {
            "inputs": [],
            "name": "paused",
            "outputs": [
                {
                    "internalType": "bool",
                    "name": "",
                    "type": "bool"
                }
            ],
            "stateMutability": "view",
            "type": "function"
        },
        {
            "inputs": [],
            "name": "renounceOwnership",
            "outputs": [],
            "stateMutability": "nonpayable",
            "type": "function"
        },
        {
            "inputs": [
                {
                    "internalType": "address",
                    "name": "operator",
                    "type": "address"
                },
                {
                    "internalType": "bool",
                    "name": "approved",
                    "type": "bool"
                }
            ],
            "name": "setApprovalForAll",
            "outputs": [],
            "stateMutability": "nonpayable",
            "type": "function"
        },
        {
            "inputs": [
                {
                    "internalType": "bytes4",
                    "name": "interfaceId",
                    "type": "bytes4"
                }
            ],
            "name": "supportsInterface",
            "outputs": [
                {
                    "internalType": "bool",
                    "name": "",
                    "type": "bool"
                }
            ],
            "stateMutability": "view",
            "type": "function"
        },
        {
            "inputs": [],
            "name": "symbol",
            "outputs": [
                {
                    "internalType": "string",
                    "name": "",
                    "type": "string"
                }
            ],
            "stateMutability": "view",
            "type": "function"
        },
        {
            "inputs": [
                {
                    "internalType": "address",
                    "name": "newOwner",
                    "type": "address"
                }
            ],
            "name": "transferOwnership",
            "outputs": [],
            "stateMutability": "nonpayable",
            "type": "function"
        },
        {
            "inputs": [
                {
                    "internalType": "string",
                    "name": "_baseURI",
                    "type": "string"
                }
            ],
            "name": "setBaseURI",
            "outputs": [],
            "stateMutability": "nonpayable",
            "type": "function"
        },
        {
            "inputs": [
                {
                    "internalType": "string",
                    "name": "_defaultURI",
                    "type": "string"
                }
            ],
            "name": "setDefaultURI",
            "outputs": [],
            "stateMutability": "nonpayable",
            "type": "function"
        },
        {
            "inputs": [],
            "name": "revealCollection",
            "outputs": [],
            "stateMutability": "nonpayable",
            "type": "function"
        },
        {
            "inputs": [],
            "name": "unrevealCollection",
            "outputs": [],
            "stateMutability": "nonpayable",
            "type": "function"
        },
        {
            "inputs": [
                {
                    "internalType": "uint256",
                    "name": "_tokenID",
                    "type": "uint256"
                }
            ],
            "name": "revealSingle",
            "outputs": [],
            "stateMutability": "nonpayable",
            "type": "function"
        },
        {
            "inputs": [
                {
                    "internalType": "uint256",
                    "name": "_tokenID",
                    "type": "uint256"
                }
            ],
            "name": "unrevealSingle",
            "outputs": [],
            "stateMutability": "nonpayable",
            "type": "function"
        },
        {
            "inputs": [
                {
                    "internalType": "uint256",
                    "name": "_tokenID",
                    "type": "uint256"
                }
            ],
            "name": "disableSingle",
            "outputs": [],
            "stateMutability": "nonpayable",
            "type": "function"
        },
        {
            "inputs": [
                {
                    "internalType": "uint256",
                    "name": "_tokenID",
                    "type": "uint256"
                }
            ],
            "name": "enableSingle",
            "outputs": [],
            "stateMutability": "nonpayable",
            "type": "function"
        },
        {
            "inputs": [],
            "name": "disableCollection",
            "outputs": [],
            "stateMutability": "nonpayable",
            "type": "function"
        },
        {
            "inputs": [],
            "name": "enableCollection",
            "outputs": [],
            "stateMutability": "nonpayable",
            "type": "function"
        },
        {
            "inputs": [
                {
                    "internalType": "uint256",
                    "name": "_id",
                    "type": "uint256"
                }
            ],
            "name": "uri",
            "outputs": [
                {
                    "internalType": "string",
                    "name": "",
                    "type": "string"
                }
            ],
            "stateMutability": "view",
            "type": "function"
        },
        {
            "inputs": [
                {
                    "internalType": "uint256",
                    "name": "_tokenId",
                    "type": "uint256"
                },
                {
                    "internalType": "string",
                    "name": "_uri",
                    "type": "string"
                }
            ],
            "name": "setURI",
            "outputs": [],
            "stateMutability": "nonpayable",
            "type": "function"
        },
        {
            "inputs": [
                {
                    "internalType": "uint256[]",
                    "name": "ids",
                    "type": "uint256[]"
                },
                {
                    "internalType": "string[]",
                    "name": "uris",
                    "type": "string[]"
                }
            ],
            "name": "setBatchURI",
            "outputs": [],
            "stateMutability": "nonpayable",
            "type": "function"
        },
        {
            "inputs": [
                {
                    "internalType": "address",
                    "name": "account",
                    "type": "address"
                },
                {
                    "internalType": "uint256",
                    "name": "amount",
                    "type": "uint256"
                },
                {
                    "internalType": "string",
                    "name": "_uri",
                    "type": "string"
                },
                {
                    "internalType": "bool",
                    "name": "_isRevealed",
                    "type": "bool"
                },
                {
                    "internalType": "bytes",
                    "name": "data",
                    "type": "bytes"
                }
            ],
            "name": "mint",
            "outputs": [
                {
                    "internalType": "uint256",
                    "name": "",
                    "type": "uint256"
                }
            ],
            "stateMutability": "nonpayable",
            "type": "function"
        },
        {
            "inputs": [
                {
                    "internalType": "address",
                    "name": "to",
                    "type": "address"
                },
                {
                    "internalType": "uint256",
                    "name": "tokenCount",
                    "type": "uint256"
                },
                {
                    "internalType": "string[]",
                    "name": "uris",
                    "type": "string[]"
                },
                {
                    "internalType": "uint256[]",
                    "name": "values",
                    "type": "uint256[]"
                },
                {
                    "internalType": "bool[]",
                    "name": "_isRevealed",
                    "type": "bool[]"
                },
                {
                    "internalType": "bytes",
                    "name": "data",
                    "type": "bytes"
                }
            ],
            "name": "mintBatch",
            "outputs": [],
            "stateMutability": "nonpayable",
            "type": "function"
        },
        {
            "inputs": [
                {
                    "internalType": "address",
                    "name": "from",
                    "type": "address"
                },
                {
                    "internalType": "address",
                    "name": "to",
                    "type": "address"
                },
                {
                    "internalType": "uint256",
                    "name": "id",
                    "type": "uint256"
                },
                {
                    "internalType": "uint256",
                    "name": "amount",
                    "type": "uint256"
                },
                {
                    "internalType": "bytes",
                    "name": "data",
                    "type": "bytes"
                }
            ],
            "name": "safeTransferFrom",
            "outputs": [],
            "stateMutability": "nonpayable",
            "type": "function"
        },
        {
            "inputs": [
                {
                    "internalType": "address",
                    "name": "from",
                    "type": "address"
                },
                {
                    "internalType": "address",
                    "name": "to",
                    "type": "address"
                },
                {
                    "internalType": "uint256[]",
                    "name": "ids",
                    "type": "uint256[]"
                },
                {
                    "internalType": "uint256[]",
                    "name": "amounts",
                    "type": "uint256[]"
                },
                {
                    "internalType": "bytes",
                    "name": "data",
                    "type": "bytes"
                }
            ],
            "name": "safeBatchTransferFrom",
            "outputs": [],
            "stateMutability": "nonpayable",
            "type": "function"
        },
        {
            "inputs": [
                {
                    "internalType": "address",
                    "name": "owner",
                    "type": "address"
                },
                {
                    "internalType": "uint256",
                    "name": "id",
                    "type": "uint256"
                },
                {
                    "internalType": "uint256",
                    "name": "value",
                    "type": "uint256"
                }
            ],
            "name": "burn",
            "outputs": [],
            "stateMutability": "nonpayable",
            "type": "function"
        },
        {
            "inputs": [
                {
                    "internalType": "address",
                    "name": "owner",
                    "type": "address"
                },
                {
                    "internalType": "uint256[]",
                    "name": "ids",
                    "type": "uint256[]"
                },
                {
                    "internalType": "uint256[]",
                    "name": "values",
                    "type": "uint256[]"
                }
            ],
            "name": "burnBatch",
            "outputs": [],
            "stateMutability": "nonpayable",
            "type": "function"
        },
        {
            "inputs": [
                {
                    "internalType": "address",
                    "name": "account",
                    "type": "address"
                }
            ],
            "name": "addMinter",
            "outputs": [],
            "stateMutability": "nonpayable",
            "type": "function"
        },
        {
            "inputs": [
                {
                    "internalType": "address",
                    "name": "account",
                    "type": "address"
                }
            ],
            "name": "removeMinter",
            "outputs": [],
            "stateMutability": "nonpayable",
            "type": "function"
        }
    ],
    "bytecode": "0x60806040523480156200001157600080fd5b50604051620037c2380380620037c2833981016040819052620000349162000447565b8362000049816401000000006200014d810204565b50620000706200006164010000000062000166810204565b6401000000006200016a810204565b6003805460a060020a60ff0219169055855162000095906004906020890190620002d4565b508451620000ab906005906020880190620002d4565b508351620000c1906006906020870190620002d4565b508251620000d790600c906020860190620002d4565b50600b805460ff1916831515179055600160086000620000ff64010000000062000166810204565b600160a060020a031681526020810191909152604001600020805460ff19169115159190911790558015620001415762000141640100000000620001bc810204565b505050505050620005a9565b805162000162906002906020840190620002d4565b5050565b3390565b60038054600160a060020a03838116600160a060020a0319831681179093556040519116919082907f8be0079c531659141344cd1fd0a4f28419497f9722a3daafe3b4186f6b6457e090600090a35050565b620001cf640100000000620002b3810204565b156200023b576040517f08c379a000000000000000000000000000000000000000000000000000000000815260206004820152601060248201527f5061757361626c653a2070617573656400000000000000000000000000000000604482015260640160405180910390fd5b6003805460a060020a60ff021916740100000000000000000000000000000000000000001790557f62e78cea01bee320cd4e420270b5ea74000d11b0c9f74754ebdbfc544b05a2586200029664010000000062000166810204565b604051600160a060020a03909116815260200160405180910390a1565b60035474010000000000000000000000000000000000000000900460ff1690565b828054620002e29062000524565b90600052602060002090601f01602090048101928262000306576000855562000351565b82601f106200032157805160ff191683800117855562000351565b8280016001018555821562000351579182015b828111156200035157825182559160200191906001019062000334565b506200035f92915062000363565b5090565b5b808211156200035f576000815560010162000364565b805180151581146200038b57600080fd5b919050565b600082601f830112620003a257600080fd5b81516001604060020a0380821115620003bf57620003bf6200057a565b604051601f8301601f19908116603f01168101908282118183101715620003ea57620003ea6200057a565b816040528381526020925086838588010111156200040757600080fd5b600091505b838210156200042b57858201830151818301840152908201906200040c565b838211156200043d5760008385830101525b9695505050505050565b60008060008060008060c087890312156200046157600080fd5b86516001604060020a03808211156200047957600080fd5b620004878a838b0162000390565b975060208901519150808211156200049e57600080fd5b620004ac8a838b0162000390565b96506040890151915080821115620004c357600080fd5b620004d18a838b0162000390565b95506060890151915080821115620004e857600080fd5b50620004f789828a0162000390565b93505062000508608088016200037a565b91506200051860a088016200037a565b90509295509295509295565b6002810460018216806200053957607f821691505b6020821081141562000574577f4e487b7100000000000000000000000000000000000000000000000000000000600052602260045260246000fd5b50919050565b7f4e487b7100000000000000000000000000000000000000000000000000000000600052604160045260246000fd5b61320980620005b96000396000f3fe608060405234801561001057600080fd5b5060043610610259576000357c010000000000000000000000000000000000000000000000000000000090048063715018a611610158578063bb62115e116100d5578063eefdca5311610099578063eefdca531461051b578063f13c366a1461052e578063f242432a14610536578063f2fde38b14610549578063f5298aca1461055c57600080fd5b8063bb62115e146104a8578063d23e57d2146104b1578063da1b9e08146104c4578063e5c57f26146104d7578063e985e9c5146104df57600080fd5b8063982d46431161011c578063982d464314610439578063983b2d561461044c578063a22cb4651461045f578063a7e8e70f14610472578063ad25ca291461048557600080fd5b8063715018a6146103e8578063829e47e5146103f0578063862440e2146104035780638da5cb5b1461041657806395d89b411461043157600080fd5b80633a367a67116101e657806355f804b3116101aa57806355f804b3146103a05780635c975abb146103b35780636b20c454146103c55780636c0360eb146103d85780636d1d5053146103e057600080fd5b80633a367a671461034057806340d0b4a91461034857806341651e50146103505780634e1273f41461035d5780635055fbc31461037d57600080fd5b806312532a961161022d57806312532a96146102cf5780631bf66f37146102e45780631f3b4c90146102f75780632eb2c2d61461031a5780633092afd51461032d57600080fd5b8062fdd58e1461025e57806301ffc9a71461028457806306fdde03146102a75780630e89341c146102bc575b600080fd5b61027161026c366004612695565b61056f565b6040519081526020015b60405180910390f35b610297610292366004612940565b61061b565b604051901515815260200161027b565b6102af6106b8565b60405161027b9190612c29565b6102af6102ca3660046129b7565b610746565b6102e26102dd3660046129b7565b610877565b005b6102e26102f23660046128e6565b6108bf565b610297610305366004612493565b60086020526000908152604090205460ff1681565b6102e26103283660046124e8565b610950565b6102e261033b366004612493565b610a7e565b6102af610acc565b6102e2610ad9565b600b546102979060ff1681565b61037061036b366004612817565b610b15565b60405161027b9190612be8565b61029761038b3660046129b7565b60096020526000908152604090205460ff1681565b6102e26103ae36600461297a565b610c56565b60035460a060020a900460ff16610297565b6102e26103d33660046125f7565b610c9a565b6102af610cd2565b6102e2610cdf565b6102e2610d16565b6102716103fe366004612785565b610d4d565b6102e26104113660046129d0565b610dcd565b600354604051600160a060020a03909116815260200161027b565b6102af610e1e565b6102e26104473660046126bf565b610e2b565b6102e261045a366004612493565b61105e565b6102e261046d36600461266b565b6110af565b6102e26104803660046129b7565b61119d565b6102976104933660046129b7565b600a6020526000908152604090205460ff1681565b610271600d5481565b6102e26104bf3660046129b7565b6111e2565b6102e26104d236600461297a565b61122a565b6102e261126a565b6102976104ed3660046124b5565b600160a060020a03918216600090815260016020908152604080832093909416825291909152205460ff1690565b6102e26105293660046129b7565b61129f565b6102e26112e4565b6102e2610544366004612592565b61131d565b6102e2610557366004612493565b611389565b6102e261056a3660046127e4565b611441565b6000600160a060020a0383166105f55760405160e560020a62461bcd02815260206004820152602b60248201527f455243313135353a2062616c616e636520717565727920666f7220746865207a60448201527f65726f206164647265737300000000000000000000000000000000000000000060648201526084015b60405180910390fd5b50600090815260208181526040808320600160a060020a03949094168352929052205490565b6000600160e060020a031982167fd9b67a2600000000000000000000000000000000000000000000000000000000148061067e5750600160e060020a031982167f0e89341c00000000000000000000000000000000000000000000000000000000145b806106b257507f01ffc9a700000000000000000000000000000000000000000000000000000000600160e060020a03198316145b92915050565b600480546106c590613029565b80601f01602080910402602001604051908101604052809291908181526020018280546106f190613029565b801561073e5780601f106107135761010080835404028352916020019161073e565b820191906000526020600020905b81548152906001019060200180831161072157829003601f168201915b505050505081565b60008181526007602052604081208054606092919061076490613029565b9050111561085e57600b5460ff168061078b575060008281526009602052604090205460ff165b156107cc576006600760008481526020019081526020016000206040516020016107b6929190612b32565b6040516020818303038152906040529050919050565b600c80546107d990613029565b80601f016020809104026020016040519081016040528092919081815260200182805461080590613029565b80156108525780601f1061082757610100808354040283529160200191610852565b820191906000526020600020905b81548152906001019060200180831161083557829003601f168201915b50505050509050919050565b505060408051602081019091526000815290565b919050565b600354600160a060020a031633146108a45760405160e560020a62461bcd0281526004016105ec90612efe565b6000908152600a60205260409020805460ff19166001179055565b3360009081526008602052604090205460ff166108f15760405160e560020a62461bcd0281526004016105ec90612c99565b60005b825181101561094b57610939838281518110610912576109126130c8565b602002602001015183838151811061092c5761092c6130c8565b6020026020010151610dcd565b8061094381613094565b9150506108f4565b505050565b60035460a060020a900460ff161561097d5760405160e560020a62461bcd0281526004016105ec90612d53565b81518351146109f75760405160e560020a62461bcd02815260206004820152603860248201527f455243313135353a204261746368207472616e736665723a2069647320616e6460448201527f20616d6f756e7473206c656e677468206d69736d61746368000000000000000060648201526084016105ec565b60005b8351811015610a6957600a6000858381518110610a1957610a196130c8565b60209081029190910181015182528101919091526040016000205460ff1615610a575760405160e560020a62461bcd0281526004016105ec90612de7565b80610a6181613094565b9150506109fa565b50610a778585858585611479565b5050505050565b600354600160a060020a03163314610aab5760405160e560020a62461bcd0281526004016105ec90612efe565b600160a060020a03166000908152600860205260409020805460ff19169055565b600c80546106c590613029565b600354600160a060020a03163314610b065760405160e560020a62461bcd0281526004016105ec90612efe565b600b805460ff19166001179055565b60608151835114610b915760405160e560020a62461bcd02815260206004820152602960248201527f455243313135353a206163636f756e747320616e6420696473206c656e67746860448201527f206d69736d61746368000000000000000000000000000000000000000000000060648201526084016105ec565b6000835167ffffffffffffffff811115610bad57610bad6130e1565b604051908082528060200260200182016040528015610bd6578160200160208202803683370190505b50905060005b8451811015610c4e57610c21858281518110610bfa57610bfa6130c8565b6020026020010151858381518110610c1457610c146130c8565b602002602001015161056f565b828281518110610c3357610c336130c8565b6020908102919091010152610c4781613094565b9050610bdc565b509392505050565b600354600160a060020a03163314610c835760405160e560020a62461bcd0281526004016105ec90612efe565b8051610c969060069060208401906121e1565b5050565b600354600160a060020a03163314610cc75760405160e560020a62461bcd0281526004016105ec90612efe565b61094b838383611517565b600680546106c590613029565b600354600160a060020a03163314610d0c5760405160e560020a62461bcd0281526004016105ec90612efe565b610d1461169c565b565b600354600160a060020a03163314610d435760405160e560020a62461bcd0281526004016105ec90612efe565b610d146000611732565b3360009081526008602052604081205460ff16610d7f5760405160e560020a62461bcd0281526004016105ec90612c99565b6000610d89611791565b9050610d97878288866117a7565b610da18186610dcd565b6000818152600960205260409020805460ff1916851515179055610dc361187a565b9695505050505050565b3360009081526008602052604090205460ff16610dff5760405160e560020a62461bcd0281526004016105ec90612c99565b6000828152600760209081526040909120825161094b928401906121e1565b600580546106c590613029565b3360009081526008602052604090205460ff16610e5d5760405160e560020a62461bcd0281526004016105ec90612c99565b84845114610ed65760405160e560020a62461bcd02815260206004820152602e60248201527f455243313135353a2075726973206c656e677468206d69736d6174636820776960448201527f746820746f6b656e20636f756e7400000000000000000000000000000000000060648201526084016105ec565b84825114610f4f5760405160e560020a62461bcd02815260206004820152603460248201527f455243313135353a20697352657665616c6564206c656e677468206d69736d6160448201527f746368207769746820746f6b656e20636f756e7400000000000000000000000060648201526084016105ec565b60008567ffffffffffffffff811115610f6a57610f6a6130e1565b604051908082528060200260200182016040528015610f93578160200160208202803683370190505b50905060005b8681101561103e57610fa9611791565b828281518110610fbb57610fbb6130c8565b602002602001018181525050838181518110610fd957610fd96130c8565b602002602001015160096000848481518110610ff757610ff76130c8565b6020026020010151815260200190815260200160002060006101000a81548160ff02191690831515021790555061102c61187a565b8061103681613094565b915050610f99565b5061104b87828685611891565b61105581866108bf565b50505050505050565b600354600160a060020a0316331461108b5760405160e560020a62461bcd0281526004016105ec90612efe565b600160a060020a03166000908152600860205260409020805460ff19166001179055565b33600160a060020a03831614156111315760405160e560020a62461bcd02815260206004820152602960248201527f455243313135353a2073657474696e6720617070726f76616c2073746174757360448201527f20666f722073656c66000000000000000000000000000000000000000000000060648201526084016105ec565b336000818152600160209081526040808320600160a060020a03871680855290835292819020805460ff191686151590811790915590519081529192917f17307eab39ab6107e8899845ad3d59bd9653f200f220920489ca2b5937696c31910160405180910390a35050565b600354600160a060020a031633146111ca5760405160e560020a62461bcd0281526004016105ec90612efe565b6000908152600960205260409020805460ff19169055565b600354600160a060020a0316331461120f5760405160e560020a62461bcd0281526004016105ec90612efe565b6000908152600960205260409020805460ff19166001179055565b600354600160a060020a031633146112575760405160e560020a62461bcd0281526004016105ec90612efe565b8051610c9690600c9060208401906121e1565b600354600160a060020a031633146112975760405160e560020a62461bcd0281526004016105ec90612efe565b610d146119e2565b600354600160a060020a031633146112cc5760405160e560020a62461bcd0281526004016105ec90612efe565b6000908152600a60205260409020805460ff19169055565b600354600160a060020a031633146113115760405160e560020a62461bcd0281526004016105ec90612efe565b600b805460ff19169055565b60035460a060020a900460ff161561134a5760405160e560020a62461bcd0281526004016105ec90612d53565b6000838152600a602052604090205460ff161561137c5760405160e560020a62461bcd0281526004016105ec90612de7565b610a778585858585611a83565b600354600160a060020a031633146113b65760405160e560020a62461bcd0281526004016105ec90612efe565b600160a060020a0381166114355760405160e560020a62461bcd02815260206004820152602660248201527f4f776e61626c653a206e6577206f776e657220697320746865207a65726f206160448201527f646472657373000000000000000000000000000000000000000000000000000060648201526084016105ec565b61143e81611732565b50565b600354600160a060020a0316331461146e5760405160e560020a62461bcd0281526004016105ec90612efe565b61094b838383611b21565b600160a060020a038516331480611495575061149585336104ed565b61150a5760405160e560020a62461bcd02815260206004820152603260248201527f455243313135353a207472616e736665722063616c6c6572206973206e6f742060448201527f6f776e6572206e6f7220617070726f766564000000000000000000000000000060648201526084016105ec565b610a778585858585611c29565b600160a060020a0383166115405760405160e560020a62461bcd0281526004016105ec90612e44565b80518251146115645760405160e560020a62461bcd0281526004016105ec90612f33565b604080516020810190915260009081905233905b835181101561163d576000848281518110611595576115956130c8565b6020026020010151905060008483815181106115b3576115b36130c8565b60209081029190910181015160008481528083526040808220600160a060020a038c1683529093529190912054909150818110156116065760405160e560020a62461bcd0281526004016105ec90612cf6565b600092835260208381526040808520600160a060020a038b168652909152909220910390558061163581613094565b915050611578565b506000600160a060020a031684600160a060020a031682600160a060020a03167f4a39dc06d4c0dbc64b70af90fd698a233a518aa5d07e595d983b8c0526c8f7fb868660405161168e929190612bfb565b60405180910390a450505050565b60035460a060020a900460ff16156116c95760405160e560020a62461bcd0281526004016105ec90612d53565b6003805474ff0000000000000000000000000000000000000000191660a060020a1790557f62e78cea01bee320cd4e420270b5ea74000d11b0c9f74754ebdbfc544b05a2586117153390565b604051600160a060020a03909116815260200160405180910390a1565b60038054600160a060020a0383811673ffffffffffffffffffffffffffffffffffffffff19831681179093556040519116919082907f8be0079c531659141344cd1fd0a4f28419497f9722a3daafe3b4186f6b6457e090600090a35050565b6000600d5460016117a29190613011565b905090565b600160a060020a0384166117d05760405160e560020a62461bcd0281526004016105ec90612f90565b336117ea816000876117e188611dce565b610a7788611dce565b600084815260208181526040808320600160a060020a03891684529091528120805485929061181a908490613011565b90915550506040805185815260208101859052600160a060020a0380881692600092918516917fc3d58168c5ae7397731d063d5bbf3d657854427343f4c083240f7aacaa2d0f62910160405180910390a4610a7781600087878787611e19565b600d805490600061188a83613094565b9190505550565b600160a060020a0384166118ba5760405160e560020a62461bcd0281526004016105ec90612f90565b81518351146118de5760405160e560020a62461bcd0281526004016105ec90612f33565b3360005b845181101561197a578381815181106118fd576118fd6130c8565b602002602001015160008087848151811061191a5761191a6130c8565b60200260200101518152602001908152602001600020600088600160a060020a0316600160a060020a0316815260200190815260200160002060008282546119629190613011565b9091555081905061197281613094565b9150506118e2565b5084600160a060020a03166000600160a060020a031682600160a060020a03167f4a39dc06d4c0dbc64b70af90fd698a233a518aa5d07e595d983b8c0526c8f7fb87876040516119cb929190612bfb565b60405180910390a4610a7781600087878787611fc8565b60035460a060020a900460ff16611a3e5760405160e560020a62461bcd02815260206004820152601460248201527f5061757361626c653a206e6f742070617573656400000000000000000000000060448201526064016105ec565b6003805474ff0000000000000000000000000000000000000000191690557f5db9ee0a495bf2e6ff9c91a7834c1ba4fdd244a5e8aa4e537bd38aeae4b073aa33611715565b600160a060020a038516331480611a9f5750611a9f85336104ed565b611b145760405160e560020a62461bcd02815260206004820152602960248201527f455243313135353a2063616c6c6572206973206e6f74206f776e6572206e6f7260448201527f20617070726f766564000000000000000000000000000000000000000000000060648201526084016105ec565b610a7785858585856120c7565b600160a060020a038316611b4a5760405160e560020a62461bcd0281526004016105ec90612e44565b33611b7a81856000611b5b87611dce565b611b6487611dce565b5050604080516020810190915260009052505050565b600083815260208181526040808320600160a060020a038816845290915290205482811015611bbe5760405160e560020a62461bcd0281526004016105ec90612cf6565b600084815260208181526040808320600160a060020a03898116808652918452828520888703905582518981529384018890529092908616917fc3d58168c5ae7397731d063d5bbf3d657854427343f4c083240f7aacaa2d0f62910160405180910390a45050505050565b8151835114611c4d5760405160e560020a62461bcd0281526004016105ec90612f33565b600160a060020a038416611c765760405160e560020a62461bcd0281526004016105ec90612d8a565b3360005b8451811015611d60576000858281518110611c9757611c976130c8565b602002602001015190506000858381518110611cb557611cb56130c8565b60209081029190910181015160008481528083526040808220600160a060020a038e168352909352919091205490915081811015611d085760405160e560020a62461bcd0281526004016105ec90612ea1565b600083815260208181526040808320600160a060020a038e8116855292528083208585039055908b16825281208054849290611d45908490613011565b9250508190555050505080611d5990613094565b9050611c7a565b5084600160a060020a031686600160a060020a031682600160a060020a03167f4a39dc06d4c0dbc64b70af90fd698a233a518aa5d07e595d983b8c0526c8f7fb8787604051611db0929190612bfb565b60405180910390a4611dc6818787878787611fc8565b505050505050565b60408051600180825281830190925260609160009190602080830190803683370190505090508281600081518110611e0857611e086130c8565b602090810291909101015292915050565b600160a060020a0384163b15611dc6576040517ff23a6e61000000000000000000000000000000000000000000000000000000008152600160a060020a0385169063f23a6e6190611e769089908990889088908890600401612ba5565b602060405180830381600087803b158015611e9057600080fd5b505af1925050508015611ec0575060408051601f3d908101601f19168201909252611ebd9181019061295d565b60015b611f7c57611ecc6130fa565b806308c379a01415611f095750611ee1613133565b80611eec5750611f0b565b8060405160e560020a62461bcd0281526004016105ec9190612c29565b505b60405160e560020a62461bcd02815260206004820152603460248201527f455243313135353a207472616e7366657220746f206e6f6e204552433131353560448201527f526563656976657220696d706c656d656e74657200000000000000000000000060648201526084016105ec565b600160e060020a031981167ff23a6e6100000000000000000000000000000000000000000000000000000000146110555760405160e560020a62461bcd0281526004016105ec90612c3c565b600160a060020a0384163b15611dc6576040517fbc197c81000000000000000000000000000000000000000000000000000000008152600160a060020a0385169063bc197c81906120259089908990889088908890600401612b47565b602060405180830381600087803b15801561203f57600080fd5b505af192505050801561206f575060408051601f3d908101601f1916820190925261206c9181019061295d565b60015b61207b57611ecc6130fa565b600160e060020a031981167fbc197c8100000000000000000000000000000000000000000000000000000000146110555760405160e560020a62461bcd0281526004016105ec90612c3c565b600160a060020a0384166120f05760405160e560020a62461bcd0281526004016105ec90612d8a565b336121008187876117e188611dce565b600084815260208181526040808320600160a060020a038a168452909152902054838110156121445760405160e560020a62461bcd0281526004016105ec90612ea1565b600085815260208181526040808320600160a060020a038b8116855292528083208785039055908816825281208054869290612181908490613011565b90915550506040805186815260208101869052600160a060020a03808916928a821692918616917fc3d58168c5ae7397731d063d5bbf3d657854427343f4c083240f7aacaa2d0f62910160405180910390a4611055828888888888611e19565b8280546121ed90613029565b90600052602060002090601f01602090048101928261220f5760008555612255565b82601f1061222857805160ff1916838001178555612255565b82800160010185558215612255579182015b8281111561225557825182559160200191906001019061223a565b50612261929150612265565b5090565b5b808211156122615760008155600101612266565b8035600160a060020a038116811461087257600080fd5b600082601f8301126122a257600080fd5b813560206122af82612fed565b6040516122bc8282613067565b8381528281019150858301838502870184018810156122da57600080fd5b60005b85811015612300576122ee8261240f565b845292840192908401906001016122dd565b5090979650505050505050565b600082601f83011261231e57600080fd5b8135602061232b82612fed565b6040516123388282613067565b83815282810191508583018385028701840188101561235657600080fd5b6000805b8681101561239957823567ffffffffffffffff811115612378578283fd5b6123868b88838d010161241f565b865250938501939185019160010161235a565b509198975050505050505050565b600082601f8301126123b857600080fd5b813560206123c582612fed565b6040516123d28282613067565b8381528281019150858301838502870184018810156123f057600080fd5b60005b85811015612300578135845292840192908401906001016123f3565b8035801515811461087257600080fd5b600082601f83011261243057600080fd5b813567ffffffffffffffff81111561244a5761244a6130e1565b604051612461601f8301601f191660200182613067565b81815284602083860101111561247657600080fd5b816020850160208301376000918101602001919091529392505050565b6000602082840312156124a557600080fd5b6124ae8261227a565b9392505050565b600080604083850312156124c857600080fd5b6124d18361227a565b91506124df6020840161227a565b90509250929050565b600080600080600060a0868803121561250057600080fd5b6125098661227a565b94506125176020870161227a565b9350604086013567ffffffffffffffff8082111561253457600080fd5b61254089838a016123a7565b9450606088013591508082111561255657600080fd5b61256289838a016123a7565b9350608088013591508082111561257857600080fd5b506125858882890161241f565b9150509295509295909350565b600080600080600060a086880312156125aa57600080fd5b6125b38661227a565b94506125c16020870161227a565b93506040860135925060608601359150608086013567ffffffffffffffff8111156125eb57600080fd5b6125858882890161241f565b60008060006060848603121561260c57600080fd5b6126158461227a565b9250602084013567ffffffffffffffff8082111561263257600080fd5b61263e878388016123a7565b9350604086013591508082111561265457600080fd5b50612661868287016123a7565b9150509250925092565b6000806040838503121561267e57600080fd5b6126878361227a565b91506124df6020840161240f565b600080604083850312156126a857600080fd5b6126b18361227a565b946020939093013593505050565b60008060008060008060c087890312156126d857600080fd5b6126e18761227a565b955060208701359450604087013567ffffffffffffffff8082111561270557600080fd5b6127118a838b0161230d565b9550606089013591508082111561272757600080fd5b6127338a838b016123a7565b9450608089013591508082111561274957600080fd5b6127558a838b01612291565b935060a089013591508082111561276b57600080fd5b5061277889828a0161241f565b9150509295509295509295565b600080600080600060a0868803121561279d57600080fd5b6127a68661227a565b945060208601359350604086013567ffffffffffffffff808211156127ca57600080fd5b6127d689838a0161241f565b94506125626060890161240f565b6000806000606084860312156127f957600080fd5b6128028461227a565b95602085013595506040909401359392505050565b6000806040838503121561282a57600080fd5b823567ffffffffffffffff8082111561284257600080fd5b818501915085601f83011261285657600080fd5b8135602061286382612fed565b6040516128708282613067565b8381528281019150858301838502870184018b101561288e57600080fd5b600096505b848710156128b8576128a48161227a565b835260019690960195918301918301612893565b50965050860135925050808211156128cf57600080fd5b506128dc858286016123a7565b9150509250929050565b600080604083850312156128f957600080fd5b823567ffffffffffffffff8082111561291157600080fd5b61291d868387016123a7565b9350602085013591508082111561293357600080fd5b506128dc8582860161230d565b60006020828403121561295257600080fd5b81356124ae816131bd565b60006020828403121561296f57600080fd5b81516124ae816131bd565b60006020828403121561298c57600080fd5b813567ffffffffffffffff8111156129a357600080fd5b6129af8482850161241f565b949350505050565b6000602082840312156129c957600080fd5b5035919050565b600080604083850312156129e357600080fd5b82359150602083013567ffffffffffffffff811115612a0157600080fd5b6128dc8582860161241f565b600081518084526020808501945080840160005b83811015612a3d57815187529582019590820190600101612a21565b509495945050505050565b6000815180845260005b81811015612a6e57602081850181015186830182015201612a52565b81811115612a80576000602083870101525b50601f01601f19169290920160200192915050565b805460009060028104600180831680612aaf57607f831692505b6020808410821415612ad45760e060020a634e487b7102600052602260045260246000fd5b818015612ae85760018114612af957612b26565b60ff19861689528489019650612b26565b60008881526020902060005b86811015612b1e5781548b820152908501908301612b05565b505084890196505b50505050505092915050565b60006129af612b418386612a95565b84612a95565b6000600160a060020a03808816835280871660208401525060a06040830152612b7360a0830186612a0d565b8281036060840152612b858186612a0d565b90508281036080840152612b998185612a48565b98975050505050505050565b6000600160a060020a03808816835280871660208401525084604083015283606083015260a06080830152612bdd60a0830184612a48565b979650505050505050565b6020815260006124ae6020830184612a0d565b604081526000612c0e6040830185612a0d565b8281036020840152612c208185612a0d565b95945050505050565b6020815260006124ae6020830184612a48565b60208082526028908201527f455243313135353a204552433131353552656365697665722072656a6563746560408201527f6420746f6b656e73000000000000000000000000000000000000000000000000606082015260800190565b6020808252602c908201527f455243313135353a204f6e6c79206d696e746572732063616e2063616c6c207460408201527f6869732066756e6374696f6e0000000000000000000000000000000000000000606082015260800190565b60208082526024908201527f455243313135353a206275726e20616d6f756e7420657863656564732062616c60408201527f616e636500000000000000000000000000000000000000000000000000000000606082015260800190565b60208082526010908201527f5061757361626c653a2070617573656400000000000000000000000000000000604082015260600190565b60208082526025908201527f455243313135353a207472616e7366657220746f20746865207a65726f20616460408201527f6472657373000000000000000000000000000000000000000000000000000000606082015260800190565b60208082526027908201527f455243313135353a205472616e736665722064697361626c656420666f72207460408201527f686973204e465400000000000000000000000000000000000000000000000000606082015260800190565b60208082526023908201527f455243313135353a206275726e2066726f6d20746865207a65726f206164647260408201527f6573730000000000000000000000000000000000000000000000000000000000606082015260800190565b6020808252602a908201527f455243313135353a20696e73756666696369656e742062616c616e636520666f60408201527f72207472616e7366657200000000000000000000000000000000000000000000606082015260800190565b6020808252818101527f4f776e61626c653a2063616c6c6572206973206e6f7420746865206f776e6572604082015260600190565b60208082526028908201527f455243313135353a2069647320616e6420616d6f756e7473206c656e6774682060408201527f6d69736d61746368000000000000000000000000000000000000000000000000606082015260800190565b60208082526021908201527f455243313135353a206d696e7420746f20746865207a65726f2061646472657360408201527f7300000000000000000000000000000000000000000000000000000000000000606082015260800190565b600067ffffffffffffffff821115613007576130076130e1565b5060209081020190565b60008219821115613024576130246130af565b500190565b60028104600182168061303d57607f821691505b602082108114156130615760e060020a634e487b7102600052602260045260246000fd5b50919050565b601f8201601f1916810167ffffffffffffffff8111828210171561308d5761308d6130e1565b6040525050565b60006000198214156130a8576130a86130af565b5060010190565b60e060020a634e487b7102600052601160045260246000fd5b60e060020a634e487b7102600052603260045260246000fd5b60e060020a634e487b7102600052604160045260246000fd5b600060033d11156131305760046000803e7c01000000000000000000000000000000000000000000000000000000006000510490505b90565b600060443d10156131415790565b6040516003193d81016004833e81513d67ffffffffffffffff816024840111818411171561317157505050505090565b82850191508151818111156131895750505050505090565b843d87010160208285010111156131a35750505050505090565b6131b260208286010187613067565b509095945050505050565b600160e060020a03198116811461143e57600080fdfea2646970667358221220a47635e1cd915b61e3071caea462c65edf338f2634b9b28cc3966dc7c9876b7a64736f6c63430008070033",
    "immutableReferences": {},
    "source": "//SPDX-License-Identifier: UNLICENSED\npragma solidity ^0.8.7;\n\nimport \"@openzeppelin/contracts/utils/Context.sol\";\nimport \"@openzeppelin/contracts/security/Pausable.sol\";\nimport \"@openzeppelin/contracts/token/ERC1155/ERC1155.sol\";\nimport \"@openzeppelin/contracts/access/Ownable.sol\";\n\ncontract AWST_NSM is ERC1155, Ownable, Pausable {\n\n    string public name;\n    string public symbol;\n    string public baseURI;\n    \n    mapping(uint256 => string) private _tokenURIs;\n    mapping(address => bool) public isAllowedMinter;\n    mapping(uint256 => bool) public isRevealed;\n    mapping(uint256 => bool) public isDisabled;\n\n    bool public isCollectionRevealed;\n    string public defaultURI;\n    uint256 public currentTokenID;\n\n    modifier onlyMinter() {\n        require(\n            isAllowedMinter[_msgSender()],\n            \"ERC1155: Only minters can call this function\"\n        );\n        _;\n    }\n\n    constructor(\n        string memory _name,\n        string memory _symbol,\n        string memory _baseURI,\n        string memory _defaultURI,\n        bool _isCollectionRevealed,\n        bool _isPaused\n    ) ERC1155(_baseURI) {\n        name = _name;\n        symbol = _symbol;\n        baseURI = _baseURI;\n        defaultURI = _defaultURI;\n        isCollectionRevealed = _isCollectionRevealed;\n        isAllowedMinter[_msgSender()] = true;\n\n        if(_isPaused) {\n            _pause();\n        }\n    }\n\n\n    /**\n     * @dev used for setting the base uri of the collection\n     */\n    function setBaseURI(string memory _baseURI) public onlyOwner {\n        baseURI = _baseURI;\n    }\n\n    /**\n     * @dev used for setting the default uri of the collection i.e. when the token is unrevealed\n     */\n    function setDefaultURI(string memory _defaultURI) public onlyOwner {\n        defaultURI = _defaultURI;\n    }\n\n    /**\n     * @dev set the whole collection to revealed status\n     */\n    function revealCollection() public onlyOwner {\n        isCollectionRevealed = true;\n    }\n\n    /**\n     * @dev set the whole collection to unrevealed status\n     */\n    function unrevealCollection() public onlyOwner {\n        isCollectionRevealed = false;\n    }\n\n    /**\n     * @dev set the status of a token to revealed\n     */\n    function revealSingle(uint256 _tokenID) public onlyOwner {\n        isRevealed[_tokenID] = true;\n    }\n\n    /**\n     * @dev set the status of a token to unrevealed\n     */\n    function unrevealSingle(uint256 _tokenID) public onlyOwner {\n        isRevealed[_tokenID] = false;\n    }\n\n    /**\n     * @dev disable the transfer of a single token\n     */\n    function disableSingle(uint256 _tokenID) public onlyOwner {\n        isDisabled[_tokenID] = true;\n    }\n\n    /**\n     * @dev enable the transfer of a single token\n     */\n    function enableSingle(uint256 _tokenID) public onlyOwner {\n        isDisabled[_tokenID] = false;\n    }\n\n    /**\n     * @dev disable the transfer of all tokens\n     */\n    function disableCollection() public onlyOwner {\n        _pause();\n    }\n\n    /**\n     * @dev enable the transfer of all tokens\n     */\n    function enableCollection() public onlyOwner {\n        _unpause();\n    }\n\n    function uri(uint256 _id) public view override returns (string memory) {\n        if (bytes(_tokenURIs[_id]).length > 0) {\n            if (isCollectionRevealed || isRevealed[_id]) {\n                return string(abi.encodePacked(baseURI, _tokenURIs[_id]));\n            } else {\n                return defaultURI;\n            }\n        } else {\n            return \"\";\n        }\n    }\n\n    function setURI(uint256 _tokenId, string memory _uri) public onlyMinter {\n        _tokenURIs[_tokenId] = _uri;\n    }\n\n    function setBatchURI(uint256[] memory ids, string[] memory uris)\n        public\n        onlyMinter\n    {\n        for (uint256 i = 0; i < ids.length; i++) {\n            setURI(ids[i], uris[i]);\n        }\n    }\n\n    function mint(\n        address account,\n        uint256 amount,\n        string memory _uri,\n        bool _isRevealed,\n        bytes memory data\n    ) public onlyMinter returns (uint256) {\n        uint256 tokenId = _getNextTokenID();\n        _mint(account, tokenId, amount, data);\n        setURI(tokenId, _uri);\n        isRevealed[tokenId] = _isRevealed;\n        _incrementTokenId();\n        return tokenId;\n    }\n\n    function mintBatch(\n        address to,\n        uint256 tokenCount,\n        string[] memory uris,\n        uint256[] memory values,\n        bool[] memory _isRevealed,\n        bytes memory data\n    ) public onlyMinter {\n        require(uris.length == tokenCount, \"ERC1155: uris length mismatch with token count\");\n        require(_isRevealed.length == tokenCount, \"ERC1155: isRevealed length mismatch with token count\");\n        uint256[] memory ids = new uint256[](tokenCount);\n        for (uint256 i = 0; i < tokenCount; i++) {\n            ids[i] = _getNextTokenID();\n            isRevealed[ids[i]] = _isRevealed[i];\n            _incrementTokenId();\n        }\n        _mintBatch(to, ids, values, data);\n        setBatchURI(ids, uris);\n    }\n\n    function safeTransferFrom(\n        address from,\n        address to,\n        uint256 id,\n        uint256 amount,\n        bytes memory data\n    ) public override whenNotPaused {\n        require(!isDisabled[id], \"ERC1155: Transfer disabled for this NFT\");\n        super.safeTransferFrom(from, to, id, amount, data);\n    }\n\n    function safeBatchTransferFrom(\n        address from,\n        address to,\n        uint256[] memory ids,\n        uint256[] memory amounts,\n        bytes memory data\n    ) public override whenNotPaused {\n        require(\n            ids.length == amounts.length,\n            \"ERC1155: Batch transfer: ids and amounts length mismatch\"\n        );\n        for (uint256 i = 0; i < ids.length; i++) {\n            require(\n                !isDisabled[ids[i]],\n                \"ERC1155: Transfer disabled for this NFT\"\n            );\n        }\n        super.safeBatchTransferFrom(from, to, ids, amounts, data);\n    }\n\n    function burn(\n        address owner,\n        uint256 id,\n        uint256 value\n    ) public onlyOwner {\n        _burn(owner, id, value);\n    }\n\n    function burnBatch(\n        address owner,\n        uint256[] memory ids,\n        uint256[] memory values\n    ) public onlyOwner {\n        _burnBatch(owner, ids, values);\n    }\n\n    function addMinter(address account) public onlyOwner {\n        isAllowedMinter[account] = true;\n    }\n\n    function removeMinter(address account) public onlyOwner {\n        isAllowedMinter[account] = false;\n    }\n\n    function _getNextTokenID() private view returns (uint256) {\n        return currentTokenID + 1;\n    }\n\n    /**\n     * @dev increments the value of _currentTokenID\n     */\n    function _incrementTokenId() private {\n        currentTokenID++;\n    }\n\n}\n",
    "sourcePath": "/home/saeed/Desktop/ArtWallStreet/AWST/contracts/ERC1155.sol",
    "compiler": {
        "name": "solc",
        "version": "0.8.7+commit.e28d00a7.Emscripten.clang"
    },
    "schemaVersion": "3.3.4",
    "updatedAt": "2022-09-07T08:14:57.900Z",
    "devdoc": {
        "kind": "dev",
        "methods": {
            "balanceOf(address,uint256)": {
                "details": "See {IERC1155-balanceOf}. Requirements: - `account` cannot be the zero address."
            },
            "balanceOfBatch(address[],uint256[])": {
                "details": "See {IERC1155-balanceOfBatch}. Requirements: - `accounts` and `ids` must have the same length."
            },
            "disableCollection()": {
                "details": "disable the transfer of all tokens"
            },
            "disableSingle(uint256)": {
                "details": "disable the transfer of a single token"
            },
            "enableCollection()": {
                "details": "enable the transfer of all tokens"
            },
            "enableSingle(uint256)": {
                "details": "enable the transfer of a single token"
            },
            "isApprovedForAll(address,address)": {
                "details": "See {IERC1155-isApprovedForAll}."
            },
            "owner()": {
                "details": "Returns the address of the current owner."
            },
            "paused()": {
                "details": "Returns true if the contract is paused, and false otherwise."
            },
            "renounceOwnership()": {
                "details": "Leaves the contract without owner. It will not be possible to call `onlyOwner` functions anymore. Can only be called by the current owner. NOTE: Renouncing ownership will leave the contract without an owner, thereby removing any functionality that is only available to the owner."
            },
            "revealCollection()": {
                "details": "set the whole collection to revealed status"
            },
            "revealSingle(uint256)": {
                "details": "set the status of a token to revealed"
            },
            "safeBatchTransferFrom(address,address,uint256[],uint256[],bytes)": {
                "details": "See {IERC1155-safeBatchTransferFrom}."
            },
            "safeTransferFrom(address,address,uint256,uint256,bytes)": {
                "details": "See {IERC1155-safeTransferFrom}."
            },
            "setApprovalForAll(address,bool)": {
                "details": "See {IERC1155-setApprovalForAll}."
            },
            "setBaseURI(string)": {
                "details": "used for setting the base uri of the collection"
            },
            "setDefaultURI(string)": {
                "details": "used for setting the default uri of the collection i.e. when the token is unrevealed"
            },
            "supportsInterface(bytes4)": {
                "details": "See {IERC165-supportsInterface}."
            },
            "transferOwnership(address)": {
                "details": "Transfers ownership of the contract to a new account (`newOwner`). Can only be called by the current owner."
            },
            "unrevealCollection()": {
                "details": "set the whole collection to unrevealed status"
            },
            "unrevealSingle(uint256)": {
                "details": "set the status of a token to unrevealed"
            }
        },
        "version": 1
    },
    "userdoc": {
        "kind": "user",
        "methods": {},
        "version": 1
    }
}